:1000000094C2AEC2ADC212C9ABC2C6C8A9C2A8C210
:10001000A7C2A6C2A5C2A4C2A3C2A2C2A1C205A869
:100020004CCDB2D44EB93836A9020C50B99186885D
:10003000083CA6AAAA2ABE000000803FB420A6223F
:10004000B524E4263429A72B402E0031EA330037AB
:10005000453ABC3D480C4A0C4C0C4D0C4F24FF005B
:1000600000F8F8F898F8F870000080C0C0C0C0C070
:100070008000C0C0C0C0C0800000C0C0C0C0F8F8D0
:10008000F840C0C00000C0C0003898D8F8F8700030
:100090000000001F1F1F011F1E1800070F1F1A1A44
:1000A0001B1B030C1E1E1A1F1F1F000F1F1F1808EB
:1000B0001F1F1FC0C1CFFF7C1F0300001D1D1D009F
:1000C0000000001083AC696DAD821000136C69ED07
:1000D000AD022000232CE9ED2D02202006D8D25AB3
:1000E0005AC4101082AD6D69AC83102002ADED6969
:1000F0006C130020022DEDE92C230010C45A5AD2B3
:10010000D80620370D3610351334163319321C310A
:100110001F3022FF0000C0F0F038989898B8800097
:1001200000C0C0C0C0C08000C0C0C080C0C0C0C0CF
:10013000C0C080000080C0C0C0C0C080000000C03F
:10014000F0F038181838F0F0C000C0C0C00000C08F
:10015000C0400080C0C0C0C0C08000C0C0C0C0C01F
:1001600000000000070F0F1C19191F1F0F000C1EA5
:100170001E1A1F1F1F001F1F1F001F1F1F001F1FF2
:100180001F00070F1F1A1A1B1B03000000030F0F8D
:100190001C18181C0F0F030000071F1F1E1F030051
:1001A000070F1F1A1A1B1B03001F1F1F0000000050
:1001B00090064EE4C08818993C7E4341617F3E0022
:1001C0000002027F7F00000042637151594F4E00D0
:1001D00032734149697F3600302824227F7F200016
:1001E0000E4F4949697931003C7E4B4969783000AE
:1001F000020301717D0F0300367F49496D7F360090
:10020000064F4949697F3E0056302E31004F424E1D
:100210002D543031000080C06020E020204080005C
:1002200000FF57AB5701FF2020408000000080C036
:100230006020E020204080001F376A95A897AC948A
:100240004C241F001F356A95A897AC944C241F00BE
:10025000FF97AA9580BFAC94AC84FF50524553538E
:1002600020425554544F4E0000000000000080C052
:10027000E0F070787800F8FC06F3F9FDFDFDF9F286
:1002800004F8006040800000000000000000000052
:1002900000E0D8D6CBD4EAE4EAF5F2F5F2F9F7F6C5
:1002A000ECEDEBEBEBE9F4FAF9F8FA797A7B7C60A8
:1002B00000000000000000000707073FC70703AB6E
:1002C00053FBFBFBFDFD8181FDFDFDFEC0C0FEFE7D
:1002D000FEFEFF1F000000000000000000C0201014
:1002E00028488404A556AC59AA5DB757B76FAF69C3
:1002F000A828E86EAF57B757AB54AA56EA42E216A1
:100300000C0408F078FCFEFECECE8E1E000000C06D
:10031000C0E06060E0E0C0800000C0C0E06060E07D
:10032000E0C08000FFFFFFFF00C0E0E0E0602000D1
:10033000C0C0E06060E0E0C08000E0E0E0E0C0E07D
:10034000E078717173737F3F3F1E001F3F3F7F76E0
:100350007677777707001F3F3F7F76767777770747
:10036000007F7F7F7F061F7F7F7D70401F3F3F7F25
:10037000767677777707007F7F7F7F010000FEFE2C
:10038000FEFEC0C0C0C0C0FEFEFEFE0000C0C0E059
:10039000E0E0E0E0C0C00000FFFFFFFF00FFFFFF64
:1003A000FF0000C0C0E0E0E0E0E0C0C00060E0E0CE
:1003B000E0E00000E0E0E0E0E00000E0E0607F7FFF
:1003C0007F7F01010101017F7F7F7F000F3F3F7F22
:1003D0007070707F3F3F0F007F7F7F7F007F7F7F48
:1003E0007F000F3F3F7F7070707F3F3F0F00077FA0
:1003F0007F7F787F0700077F7F7E7F3F070000AE0B
:10040000D5F0A83FD300408D142000A1C8DA128196
:100410003FD922DB20A4A62EAFB00010007001004F
:10042000C0000C00CAA77C0A42F55508534248197F
:100430005EF55112003000000027450040941C007A
:1004400014F3190504F11104200400000441100400
:1004500000040000104208015E14450F40F0010046
:100460005955551351555D0D8C927C085755550DB6
:100470005E55550D51520C015E55550F5655550F91
:1004800000A0000000A4000000C2280080A22800F4
:100490008062080040500D005E7455079C92241F36
:1004A0005F555D0D9C1445115F1425075F5555116F
:1004B0005F5114015E54551D1F41101F40F445004B
:1004C000100421071F41181D1F0441105EF0041F76
:1004D0009C10041F5E54450F5F9214035ED4451FA9
:1004E0005F92341B5655550D41F005011F0421073D
:1004F0001F4208011FE4410F1743181D07C10901DE
:1005000051564D1100F0450000F0010040F401008B
:1005100080100C0010044110EA02E1020000760392
:10052000C40500007E06D006C30311241FBECFE51C
:10053000D2E0DEBFCDBF10E0A0E6B0E0E0EEFEE12D
:1005400002C005900D92A836B107D9F721E0A8E6C0
:10055000B0E001C01D92AB38B207E1F7BCD6BECC0B
:100560004FCD8F7787B987B187B9369A3699FECF45
:1005700084B195B108953FB7F894809106019091A8
:100580000701A0910801B091090122B708B601FE48
:1005900005C02F3F19F00196A11DB11D3FBFBA2F15
:1005A000A92F982F8827BC01CD01620F711D811DD5
:1005B000911D42E0660F771F881F991F4A95D1F75A
:1005C000089590919E00915090939E0081E091112A
:1005D00080E00895E3EAF0E08EE2808388E18183A1
:1005E00083E2828380ED838385E192E09583848337
:1005F000E4EDF0E086E580A3A5EFB0E08C918260A9
:1006000081608C938DE092E093A382A388E684A31B
:10061000A9EFB0E08C91826081608C9388E092E0D9
:1006200097A386A38CE380939E0081E08093D30000
:100630000895CF92DF92EF92FF920F931F93CF9383
:10064000DF93E0919F00F091A00021E0EA30F105F6
:1006500008F420E081E0E436F10508F480E0280F9A
:1006600081E0E83E93E0F90708F480E0280F422F8C
:10067000440F440F440F2E5F30E0C90166E070E084
:10068000E9DBEC01CD55DF4F10E000E068E0C62E5D
:1006900078ECD72EAAE0EA2EF12C48831982CA8280
:1006A000C901801B910B66E070E0D4DB8A559F4F37
:1006B000DC01DC92CF01B701EADB53E0880F991F20
:1006C0005A95E1F788549E4F9D838C83FB010F5F01
:1006D0001F4F48502697483F01F7DF91CF911F9158
:1006E0000F91FF90EF90DF90CF90089598E1909355
:1006F000A30088E08093A40080E48093A50080EDAF
:100700008093A6002EE733E03093A8002093A70043
:100710002BE22093A9009093AA009DE39093AB0055
:100720008093AC0084E093E09093AE008093AD00A2
:1007300080919F009091A000892B09F07ADF91E0D1
:100740009093C70080E28093C80087E28093C9003D
:1007500080EE8093CA0028E632E03093CC002093EC
:10076000CB0086E38093F4008091F5008260816085
:100770008093F5002BE532E03093F7002093F600EC
:100780009093D30008952F923F924F925F926F9271
:100790007F928F929F92AF92BF92CF92DF92EF9211
:1007A000FF920F931F93CF93DF9300D000D01F923F
:1007B000CDB7DEB77C836B8320919D00322F3695B9
:1007C00036953695277040917700542F577059838E
:1007D00090917600692F67706A83212C642E681AC5
:1007E000592E581A48E0A42EB12CCC24CA94D12CEE
:1007F000E2E18E2E912C052F10E011950195110943
:1008000007701127E62EF12CF194E194F10877E0BE
:10081000E722FF24E32FF0E0EE0FFF1FE758FF4F22
:100820004081460D7180750C44244A94483064F42C
:10083000C501841B910947FD9395D60102C0B5956A
:10084000A7958A95E2F74A2E33243A94171434F484
:100850003C2C072C01C0330C0A94EAF7211115C077
:10086000832F90E061E070E0211102C06FEF7FEF15
:10087000860F971F4296B4011EDBDC01AA0FBB1F37
:10088000A758BF4F06C0222329F2B0E0A0E02730CE
:1008900039F3E22FF0E0E055FE4F54915D831416DA
:1008A0000CF45FC0EB81FC811082F7E0F71574F166
:1008B00081E0870D109739F011968C91850D871581
:1008C0000CF4872D8F5F9FEF883064F4B501681BAF
:1008D000710987FD7395D60102C0B595A7956A95F4
:1008E000E2F79A2F8D810A8001C0880F0A94EAF7F7
:1008F000ED810E2C01C0E6950A94EAF7E82BE92B6E
:10090000E321AB81BC818C91E82BEC932F5F2830E5
:1009100039F4832F90E00196B401CDDA382F20E02E
:100920002394EB81FC813196FC83EB83F0E82F125A
:10093000AACF0F900F900F900F900F90DF91CF9153
:100940001F910F91FF90EF90DF90CF90BF90AF90ED
:100950009F908F907F906F905F904F903F902F90DF
:1009600008958FEF840F109731F08C91860D481702
:100970000CF4842F81509FEF181634F4FC2D01C025
:10098000FF0F8A95EAF79F2F5D81002E01C05695D3
:100990000A94EAF78D81098001C0880F0A94EAF76A
:1009A000852B892B8421EB81FC8180837ECF28E0FD
:1009B00030E090E8482F4923F9F0F894C09AB898AD
:1009C0007894F894C29ABA987894F894C298BA9A9B
:1009D000789496952150310969F7F894C09AB8989F
:1009E0007894F894C29ABA98789486B3F894C29896
:1009F000BA9A789481700895F894C098B89AE0CF24
:100A0000EF92FF920F931F93CF93DF93082FF894E9
:100A1000C098B89A7894F894C298BA9A789488E76B
:100A2000C6DFCFEFDFEF811112C08AE0E82E81E050
:100A3000F82ED0E0C0E010E0C017D10744F4F70171
:100A400081917F01B4DF811102C02196F5CFF89426
:100A5000C098B89A7894F894C29ABA987894F8940E
:100A6000C09AB8987894CE01DF91CF911F910F91E1
:100A7000FF90EF900895CF92DF92EF92FF926C017A
:100A8000CC0CDD1C90E080E0F12CE12CA70196015C
:100A900080D728EE33E040E050E0B0D72F5F3F4FE3
:100AA0004F4F5F4F209368003093690040936A0076
:100AB00050936B0060E074E284EF90E0A701960130
:100AC00081D781E02F3F31054105510549F040F0C4
:100AD0008F3031F08F5F5695479537952795F2CF38
:100AE000806880BF21502DBD1FBC89B7806489BF3D
:100AF000FF90EF90DF90CF900895CF93DF932091F8
:100B0000710030917200A9014F5F5F4FF901A4910C
:100B1000A7FF07C01092720010927100DF91CF9171
:100B200008958A2F6CE0A7D9E92FF0E0EE0FFF1FA0
:100B3000E45CFF4FC591D4912E5F3F4F309372001C
:100B400020937100FA01849190E06AE070E082D90C
:100B50009C0183E890E08A1B91096CE070E0ABD9BE
:100B6000862FB9019E0102C0369527958A95E2F736
:100B7000C901DF91CF917FCFE3EAF0E080E3DF01AD
:100B80001D928A95E9F708954AD6009721F0BC0195
:100B900090E080E0ECD68091A10090E08095909567
:100BA0002091A200207130E082239323892B11F43D
:100BB00081E0089582E00895AF92BF92CF92DF92D4
:100BC000EF92FF920F931F93CF93DF9380919D003D
:100BD00090E088579F4F33E0959587953A95E1F7D8
:100BE00022E130E0B90167D9EC014196B90163D93E
:100BF0007C01EE0CFF1CF701E758FF4F018180815B
:100C0000081B67D623E030E040E050E0DBD6162F2B
:100C1000809178008150809378001816DCF018E0FD
:100C2000161BFDD5BC01990F880B990B70588F4F7F
:100C30009F4F20919F003091A00050E040E0A9D646
:100C400026E195958795779567952A95D1F76E5FFB
:100C500060937800F701E758FF4F81818252990B2A
:100C600065E070E028D9D62EC62E812F012E000C0B
:100C7000990B801B910907FD939597FF03C09195F0
:100C80008195910921E130E0281B390B8D2D972F9B
:100C900097FF03C09195819591095901A81AB90A46
:100CA00060E031F016D69501BB0C440B550B8AD68B
:100CB000685001171CF4812F801B680FC7FC6D1949
:100CC000F701E758FF4F8181680F693398F068E3B7
:100CD000CC0FDD1FC758DF4F6983611B6883DF912D
:100CE000CF911F910F91FF90EF90DF90CF90BF9029
:100CF000AF900895603160F760E1EACFCF93109232
:100D0000A00010929F00E9E7F0E090E288E2908373
:100D10008183329620E0E938F207C9F3C0F382E01C
:100D20008093780080E580939D0080919D008139BB
:100D300028F442DF80919D00885FF5CFC8E0C09322
:100D40009D001092740080E28093730010927000F6
:100D500010926F0081E080936E000EDF87E2809337
:100D6000A900C093AA0082E38093AB0080ED80933A
:100D7000AC008FE590E09093AE008093AD0089B712
:100D80008F7B89BF84E590E090937200809371001F
:100D9000B4DE109275008CE380939E00CF9108958D
:100DA0008F929F92AF92BF92CF92DF92EF92FF927B
:100DB0000F931F93CF93DF93C09174006C2F70E05B
:100DC00090E080E0D3D62BED3FE049EC50E493D7A0
:100DD00020E030E040E85BE38ED797D66B017C01E2
:100DE0006091730070E090E080E0C0D64B015C0140
:100DF000A701960160E070E080E89FE321D69B01A7
:100E0000AC01C501B40177D720E030E040E05FE3FA
:100E100072D77ED660936D00862F90E08095909576
:100E200001969595879580937700669560937600F7
:100E3000C43F00F14ED529B72F7B29BF1092720015
:100E40001092710020E130E040E050E0BBD5CB01D2
:100E5000409662E370E00FDE8091740080FF0AC06C
:100E6000809177008F5F80937700809176008F5F0D
:100E700080937600E0917000F0E020916F00809107
:100E80006E00622F022E000C770B90E0E3D7AC01CE
:100E90004E0F5F1F80919D00840F952F911D73E071
:100EA000959587957A95E1F762E170E004D89927E6
:100EB0008C01000F111FE801C758DF4F211162C0DC
:100EC00040917500413009F059C03091A20031FBCA
:100ED000222720F93170231B09F454C031E0121687
:100EE0000CF030E030936E00022E000C330B820FBA
:100EF000931F429662E170E0DED7880F991FBC0114
:100F000067587F4F7B012E0F3F1F2F3F3F4FD1F17F
:100F1000F801E758FF4F2181D70111965C91322FDC
:100F2000521708F4352FF801E758FF4F87589F4FA5
:100F3000DC019C918081891708F4892F381B8091EE
:100F40006D0090E0830F911D37FD9A950897D4F0BE
:100F5000251B20936C0088E080936F00413061F482
:100F600089B78F7B89BF109272001092710064E183
:100F700070E084E992E07FDDE70104C021E04423D2
:100F800009F4ACCF80916F0018162CF59091700089
:100F900020916E00222309F45DC0983309F05FC0F0
:100FA000883059F409DE80919F009091A00001964D
:100FB0009093A00080939F003CDB80919D0090E087
:100FC000029660E970E077D780939D0080916F0072
:100FD000825080936F00F0917500E9812091760036
:100FE000022E000C330B40916F00A881CA2FD0E075
:100FF000F230B9F5C20FD31F80916E0090E0880FD8
:10100000991F880F991F47FD4F5F4595840F911DCC
:1010100047FD9A9523E0880F991F2A95E1F78D5394
:101020009F4F309170003093A300C093A40028E03C
:101030002093A50028E42093A6009093A800809315
:10104000A700F13009F443C090F1F23009F475C003
:1010500082E092C08EEF890F80937000B7CF82E05C
:10106000FACF80916C00082E000C990B642F042E8F
:10107000000C770BEFD653E0959587955A95E1F7DD
:101080002E0F311D28503109820F931F893391058E
:1010900014F088E390E020917700C20FD11D27FD66
:1010A000DA95C817D9070CF0A7CFEC01A5CF80912E
:1010B0009E00815080939E008111CACF1092AE0095
:1010C0001092AD00B6DA81E080937500C1CF8091B7
:1010D000740091E0980F909374008111B9CFEA1BCE
:1010E000E43010F589E18093A90080E38093AA00A1
:1010F0008EE48093AB0080ED8093AC0084E191E0BE
:101100009093AE008093AD0089B78F7B89BF83E059
:1011100091E09093720080937100EFDC82E0809305
:10112000750080EF80939E00809173008F3F09F4DB
:101130008FCF8F5F809373008BCF20919E00922F73
:10114000917080917400890F809374008091A20047
:10115000807190E04091A10050E04095509584232B
:101160009523892B11F0CADD73CF8FEF820F809307
:101170009E0081116DCF81E091E09093D300DF91CB
:10118000CF911F910F91FF90EF90DF90CF90BF9084
:10119000AF909F908F9008951F920F920FB60F926D
:1011A00011242F933F938F939F93AF93BF9380917D
:1011B000020190910301A0910401B09105013091C9
:1011C000010123E0230F2D3768F126E8230F029653
:1011D000A11DB11D20930101809302019093030191
:1011E000A0930401B093050180910601909107013D
:1011F000A0910801B09109010196A11DB11D809334
:10120000060190930701A0930801B0930901BF91D3
:10121000AF919F918F913F912F910F900FBE0F90A3
:101220001F9018950196A11DB11DD4CF1F920F924A
:101230000FB60F9211242F933F934F935F936F93A9
:101240007F938F939F93AF93BF93EF93FF9380917F
:10125000680090916900A0916A00B0916B00892BA1
:101260008A2B8B2BD9F08091680090916900A09116
:101270006A00B0916B000197A109B10980936800E1
:1012800090936900A0936A00B0936B00892B8A2B1E
:101290008B2BA9F088B390E1892788BBFF91EF9150
:1012A000BF91AF919F918F917F916F915F914F917E
:1012B0003F912F910F900FBE0F901F901895C498DB
:1012C00089B78F7B89BF8091710090917200892BC3
:1012D00029F313DCE3CFCF93DF93CDB7DEB72997A4
:1012E0000FB6F894DEBF0FBECDBF83E08ABD83BFCB
:1012F000789489B7826089BF80E48CBD8FEF8DBD03
:1013000087EC80BF87E886B9BC9AC498F894C29AE3
:10131000BA987894F894C09AB89878944EE150E0CE
:101320006EEF73E08AE091E02BD38EE169DB24DC81
:10133000E4EDF0E088E2DF011D928A95E9F7809103
:10134000000190E066E070E085D5885E9A4FFC0170
:1013500085919491FC0109952FB7F8948091020131
:1013600090910301A0910401B09105012FBF8093DA
:10137000FC009093FD00A093FE00B093FF00212C91
:1013800074E0372E66E9462E512C8091A20080939E
:10139000A10080E8E6D89A83898383E8E2D89C019B
:1013A00066B370E06095709543E0660F771F4A95CD
:1013B000E1F7462F4071C10169817A81861B970B45
:1013C000B20179D5462BC101821B930BB20173D5B3
:1013D000660F771F660F771F462B4093A200809100
:1013E000000190E066E070E035D5865E9A4FFC0122
:1013F00085919491FC010995982E8091000190E0CF
:1014000066E070E027D5845E9A4FFC012591349107
:101410003C832B838091D300882309F455C130E4A9
:1014200030930A0107E010E0380167E0661A71089E
:101430008B819C81892B09F49EC06BE071E0C30114
:10144000EB81FC810995A3EAB0E01496ED91FC9143
:101450001597309709F4A4C011964C911197842FD9
:10146000042E000C990B081719070CF499C0139659
:101470002C9113972F7330E0B901680F791F66160E
:1014800077060CF08DC0CC900C2C000CDD08129669
:10149000EC901297F12CB6016E0D7F1D16161706F3
:1014A0000CF07EC05801A81AB90A83E0B594A7943D
:1014B0008A95E1F78A2C4770C701B501CBD48E0F0E
:1014C0009F1FB601655F7E4F78876F83295F3F4F0F
:1014D000B90123E0759567952A95E1F77A836983C9
:1014E00030E020E0BC016E197F09E8E0F0E0E41B89
:1014F000F109FE83ED83E216F30609F451C0F6010B
:10150000E20FF31FE038F10570F5E981FA8150E050
:10151000AE16BF064CF4FC01E20FF31F5491042EEB
:1015200001C0550F0A94EAF7442371F0181464F4CB
:10153000FB01E20FF31FE491F0E00D8002C0F5958E
:10154000E7950A94E2F75E2B1396EC911397E07CF3
:10155000C9F450955987EF81F8855081F9855F234B
:10156000EF81F8855083EF81F8853196F887EF8316
:101570002F5F3F4FC0CFABE0B1E0E0E81D92EA95AE
:10158000E9F761CFE03429F4EF81F885F0815F2B32
:10159000E7CFE03829F7EF81F885F0815F27E0CFCA
:1015A0001696F0E0A33DBF0709F04FCFC80103979F
:1015B00066E070E080D4660F771F660F771FDB014F
:1015C000A053BF4F819520E0A43DB20708F46DC041
:1015D00030E0AC3FB30708F068C012966D917C9183
:1015E00013977A836983672B09F45FC02C91E82FE6
:1015F000FF27E1950CF4F095AF01922F11963C91E5
:101600001197E981FA8130FF41C0F490FF2009F47D
:101610004CC066E0620F7FED7F0D7F3378F5EF2DD4
:10162000FF0CFF0BEE0FFF1FEE0FFF1FE856FC4FE6
:10163000C590D590E590F490E22F220FFF0BE55F67
:10164000FE4F732F727097FD0EC02C2D2F7318163E
:10165000FCF4082E01C0220F0A94EAF730817723A8
:1016600009F1232B208326E0F694E794D794C794BE
:101670002A95D1F731969F5F6913E5CF29813A8189
:101680002F5F3F4F3A832983262FB7CFF080BECFFD
:10169000882321F330E0042E02C0359527950A9463
:1016A000E2F7DCCF20952323DDCF14968A5F8830C4
:1016B0000CF489CF81E8A4D9085F1F4F07341105C6
:1016C00009F0B2CE1092D300809100019816A9F0D3
:1016D0009092000151DAA4EDB0E0E8E21D92EA95A3
:1016E000E9F7892D90E066E070E0B4D3885E9A4F08
:1016F000FC0185919491FC010995C090FC00D0906B
:10170000FD00E090FE00F090FF00F1E2CF0ED11C52
:10171000E11CF11CC092FC00D092FD00E092FE00A2
:10172000F092FF002FB7F89480910201909103018D
:10173000A0910401B09105012FBFC81AD90AEA0A85
:10174000FB0AF7FC22CE17D77A836983C114D10430
:10175000E104F10461F419CE21E0C21AD108E108D4
:10176000F10869817A8168517C4F7A83698303D754
:10177000A981BA816A1B7B0B683E734038F3C114A0
:10178000D104E104F10441F7FDCD8F929F92AF9215
:10179000BF92CF92DF92EF92FF92CF93DF93EC0153
:1017A000688179818A819B81611571058105910527
:1017B00021F464E279ED8BE597E02DE133EF41E030
:1017C00050E000D149015A0127EA31E440E050E0FD
:1017D000E0D06B017C012CEE34EF4FEF5FEFC501E1
:1017E000B401D7D0DC01CB018C0D9D1DAE1DBF1DFA
:1017F000B7FF03C00197A109B04888839983AA83E2
:10180000BB839F77DF91CF91FF90EF90DF90CF90D8
:10181000BF90AF909F908F900895B7DF089580E6B6
:1018200090E0B3DF0895B0E0A0E080936000909373
:101830006100A0936200B093630008958F929F921D
:10184000AF92BF92CF92DF92EF92FF92CF93DF934E
:10185000EC01688179818A819B816115710581051F
:10186000910521F464E279ED8BE597E02DE133EF0A
:1018700041E050E0A7D049015A0127EA31E440E0B5
:1018800050E087D06B017C012CEE34EF4FEF5FEF1F
:10189000C501B4017ED0C60ED71EE81EF91EF7FEA4
:1018A00006C081E0C81AD108E10880E8F80AC882B9
:1018B000D982EA82FB82C701B6019F77DF91CF917F
:1018C000FF90EF90DF90CF90BF90AF909F908F9060
:1018D00008958F929F92AF92BF92CF92DF92EF9234
:1018E000FF92609164007091650080916600909114
:1018F0006700611571058105910521F464E279EDB8
:101900008BE597E02DE133EF41E050E05BD04901FA
:101910005A0127EA31E440E050E03BD06B017C0102
:101920002CEE34EF4FEF5FEFC501B40132D0C60E9D
:10193000D71EE81EF91EF7FE06C081E0C81AD108BE
:10194000E10880E8F80AC0926400D0926500E09255
:101950006600F0926700C701B6019F77FF90EF9095
:10196000DF90CF90BF90AF909F908F90089560933D
:1019700064007093650080936600909367000895FB
:10198000FB01DC0102C005900D9241505040D8F798
:101990000895EE27FF27AA27BB2708C0A20FB31F71
:1019A000E41FF51F220F331F441F551F969587957F
:1019B0007795679598F37040A9F7009799F7BD015F
:1019C000CF010895052E97FB16F400940FD057FD14
:1019D00005D014D007FC02D046F408C050954095BD
:1019E000309521953F4F4F4F5F4F089590958095CB
:1019F000709561957F4F8F4F9F4F0895A1E21A2EEA
:101A0000AA1BBB1BFD010DC0AA1FBB1FEE1FFF1FA2
:101A1000A217B307E407F50720F0A21BB30BE40BF2
:101A2000F50B661F771F881F991F1A9469F7609539
:101A30007095809590959B01AC01BD01CF010895F3
:101A40005058BB27AA270ED00BC1D4D030F0D9D024
:101A500020F031F49F3F11F41EF4C9C00EF4E0955C
:101A6000E7FBBFC0E92F1ED180F3BA1762077307E7
:101A70008407950718F071F49EF536C10EF4E095D1
:101A80000B2EBA2FA02D0B01B90190010C01CA0138
:101A9000A0011124FF27591B99F0593F50F4503EE3
:101AA00068F11A16F040A22F232F342F4427585FD5
:101AB000F3CF469537952795A795F0405395C9F7ED
:101AC0007EF41F16BA0B620B730B840BBAF09150A5
:101AD000A1F0FF0FBB1F661F771F881FC2F70EC044
:101AE000BA0F621F731F841F48F487957795679517
:101AF000B795F7959E3F08F0B3CF9395880F08F000
:101B00009927EE0F97958795089583D0E395B9C0EF
:101B1000D1D088F09F5790F0B92F9927B751A0F0F6
:101B2000D1F0660F771F881F991F1AF0BA95C9F771
:101B300012C0B13081F0D8D0B1E00895D5C0672F80
:101B4000782F8827B85F39F0B93FCCF38695779521
:101B50006795B395D9F73EF490958095709561950A
:101B60007F4F8F4F9F4F0895E89409C097FB3EF435
:101B700090958095709561957F4F8F4F9F4F9923DA
:101B8000A9F0F92F96E9BB279395F6958795779558
:101B90006795B795F111F8CFFAF4BB0F11F460FF18
:101BA0001BC06F5F7F4F8F4F9F4F16C0882311F070
:101BB00096E911C0772321F09EE8872F762F05C084
:101BC000662371F096E8862F70E060E02AF09A951F
:101BD000660F771F881FDAF7880F9695879597F914
:101BE000089597F99F6780E870E060E008959FEF9F
:101BF00080EC089500240A941616170618060906A4
:101C0000089500240A941216130614060506089572
:101C1000EECF50D0E8F3E894E0E0BB279F57F0F018
:101C20002AED3FE049EC06C0EE0FBB0F661F771FA1
:101C3000881F28F0B23A62077307840728F0B25A67
:101C4000620B730B840BE3959A9572F7803830F42E
:101C50009A95BB0F661F771F881FD2F79048B8C0B0
:101C6000092E0394000C11F4882352F0BB0F40F4AA
:101C7000BF2B11F460FF04C06F5F7F4F8F4F9F4FEA
:101C80000895EF93E0FF06C0A2EA2AED3FE049EC99
:101C90005FEBE8DEE5DF0F90039401FC9058EEE186
:101CA000F0E0A2C057FD9058440F551F59F05F3F18
:101CB00071F04795880F97FB991F61F09F3F79F06E
:101CC00087950895121613061406551FF2CF4695F0
:101CD000F1DF08C0161617061806991FF1CF869572
:101CE0007105610508940895E894BB276627772756
:101CF000CB0197F908950AD0B3CF7CDF28F081DFBC
:101D000018F0952309F06DCF72CFEFCFCBDFA8F39A
:101D10009923D9F35523C9F3950F50E0551FAA27EE
:101D2000EE27FF27BB2700240894679520F4E20FD5
:101D3000F31FB41F0A1E220F331F441FAA1F6695EC
:101D4000A9F7779530F4F30FB41F0A1E121E08F49A
:101D50006395330F441FAA1F221F769599F7879525
:101D600020F4B40F0A1E121E631F440FAA1F221F65
:101D7000331F8695A9F7862F712D602D11249F574B
:101D800050408AF0E1F088234AF0EE0FFF1FBB1F9E
:101D9000661F771F881F91505040A9F79E3F51053D
:101DA00070F01FCFA2CF5F3FECF3983EDCF3869537
:101DB00077956795B795F795E7959F5FC1F7FE2BE8
:101DC000880F911D9695879597F908959F3F31F05B
:101DD000915020F4879577956795B795880F911D59
:101DE0009695879597F908959F938F937F936F9317
:101DF000FF93EF939B01AC017EDFEF91FF9105D044
:101E00002F913F914F915F9176CFDF93CF931F93A7
:101E10000F93FF92EF92DF927B018C01689405C0D3
:101E2000DA2EEF0173DFFE01E894A591259135913B
:101E300045915591AEF3EF0115DEFE019701A80122
:101E4000DA9479F7DF90EF90FF900F911F91CF9187
:101E5000DF9108950024552704C0080E591F880FEC
:101E6000991F009729F076956795B8F37105B9F732
:101E7000802D952F0895991B79E004C0991F96171E
:101E800008F0961B881F7A95C9F780950895AA1BBC
:101E9000BB1B51E107C0AA1FBB1FA617B70710F055
:101EA000A61BB70B881F991F5A95A9F78095909587
:101EB000BC01CD01089597FB072E16F4009406D0BF
:101EC00077FD08D0E4DF07FC05D03EF490958195BE
:101ED0009F4F0895709561957F4F0895F894FFCFB7
:081EE0000100000001000000F8
:00000001FF
