:100000005AC474C473C478CB71C42CCB6FC46EC48F
:100010006DC46CC46BC46AC469C468C467C4B420CA
:10002000A622B524E4263429A72B402E0031EA333A
:100030000037453ABC3D2400000020A10700A02362
:100040006B3A3CDC3501E671E5171FEF2C06E067E3
:10005000291E012E2C0098DD9F008B130000C07814
:100060005C24C63801009CD8A5036895052A60ACBD
:1000700063178264630003F5C1044173111854ECE3
:100080000000006F8B0500B4C40494F7730002BE37
:100090000A307C329000F3798538C1C6A52D6552AF
:1000A0002A1320300500C0445000C0C62D004080F7
:1000B0001B006081422A8319B02FCF584B11497021
:1000C000551535CF3D1840420F0010D30D00525A40
:1000D000620287761C2AEC299400B2CED21A2F1F16
:1000E00041350C226C1FE48FC60970292F007565FD
:1000F000FF2980FBFB052C55FB2F6E85EC0BC9728D
:100100002602EEDB7F153821A51DB8A0841E645D94
:100110006100205A5D05121DB700157D8C00A3CB30
:10012000EC0B4015F5284C8FF32A30E04806FFFB16
:10013000B837D0368A00F4DAC901200B2000950BBD
:10014000670228623D01FDA9E111FA8B5A338A87C3
:100150002D2250488611A0E83E014AE2C3235F27C2
:1001600000000159E205F98BB114E0A66300D48ABE
:100170002E00B9268E1BB363B83840A5AE026FBC03
:100180000D00A009010003D4650C50E8971608C0C3
:100190000A1E2C3F4A180AE9D635EFE9D923000098
:1001A00000002CA10700708E471ED85A840C00A3B3
:1001B000E111A00F0000E09C410024578900204E6F
:1001C0000000010000001BB4C40480A30400808D63
:1001D0005B007011010034F96A1200093D00A06B48
:1001E0002C0408BD0D00580200005064D7057CC9DE
:1001F0002D00491F0000905DBE260000000080B267
:10020000C1298A00000000000000EC13000022B6A3
:100210006D0040EB5B00B40CAF2F2346C323EA9381
:100220000400499C7102F01D4A116E2300008A757A
:10023000000000000000003FAB0100E9A435A0442D
:100240000C008A61C3237058D31D60EA0000220CA1
:100250003D00987F0100F23AB9292877FC02A06B93
:100260001E303D040000D8989800C00C3404343B84
:10027000770540971E00DE390600E06E1F00801DE6
:100280002C04274E00000000000080F8A93290B234
:10029000080059A3E111507B890034AA0C00C0CF9B
:1002A0006A00C0320A032C010000849A0400D04D79
:1002B000C3235A08AF2F06000000FA24010010E9FA
:1002C0003300EE0AAF2FA0BB0D00F0ED5C2418E95F
:1002D000A4350000000080841E00C4EA00008813DA
:1002E0000000C0CF6A00C04DC103C4090E004084A5
:1002F000CD1D5A0000008E6B010064C2EB0B05009F
:100300000000D8C50A0000000000D03334049A422F
:100310000F00F747C32380866502070000000065D1
:10032000CD1DA8B05B00B40F00001F00000050946A
:10033000391E00127A003C3B010000497F0F5875BE
:10034000000034568900C4270900281103008403E3
:100350000000F08A89003C65CD1D80380100878B44
:100360000800AC851E000046C32369090000000890
:10037000AF2F281C0000A4A4070060DF3904AA34B2
:10038000800030F5640205C2EB0B80EE360004639A
:100390006600D08B430664EA0000D94200120208CE
:1003A000AF2F00000000441B491140E133006029D9
:1003B000DA230A127A002635F1353422040000E1EE
:1003C000F505D0113318C0090E0000000000741F9D
:1003D000AF2F801D2C0448F1FA02A10F00006CC55C
:1003E0000A000027B92914FD43142823000003C282
:1003F000EB0B8085030130750000409C00006057C6
:10040000890020B12E005F000000844A5D0500567F
:100410002D0450780000005A620220AC080320949A
:100420001E0058147A0000A86100D5C62D000900EE
:10043000000000E1F505E02A0900079AD91D901394
:100440007A00083BA53500000000C0B59800005AAE
:10045000620222A1070004100000C6CF6A00A8A70C
:100460001E00F4B5C40480618C00F0AF0A002003C4
:100470000000562030008833920C0165CD1D483BAA
:10048000090098F20B0016D9CA01808D5B009C858B
:10049000A8355A2300000000000040427918B80B2C
:1004A0000000481B060010D06A00E8328A00168659
:1004B0001E000100000080380100FA05D9011C90DF
:1004C0003C03BE54A60098CB622F70110100B4B853
:1004D000C404204E0000B1CBE123107A07007C2E2B
:1004E000FB1D00000000B4140000807B08380027CA
:1004F000B92988EA0000B8CDEB0B6200000043CBBD
:100500000D00E204000049FAF605BAEC210140347E
:10051000BC29120C0000805C411EAC89CF04682EFF
:10052000980300093D00E8157A0024770000686B05
:10053000FC02681F0000002D3101D00D5E055C4EED
:1005400000005100000068C6670040CEA901B0104D
:10055000120509000000804A5D05DC5A3D24F5AF14
:100560000A0006543D0004BF000041548900FC3ECF
:10057000F6059C2F1204926FB02F80156D050A9618
:10058000CE1DE8C84536B4A1660244FF1005062D0D
:100590003101F8877A00589700068419B02FA55FBB
:1005A0002E04A66ED81782F0FA02A45A3D000299D2
:1005B000F90B325A62028038010060AE0A0020D383
:1005C000C901B1160000580200001E35E030EE3DB2
:1005D0000600808D5B00480C4A0C4C0C4D0C4F24DF
:1005E000FF204541535920004D454449554D0020B9
:1005F0004841524420004558504552540040E000C4
:10060000000000000000000000000000000000E00A
:1006100040C03008C8840484C4E03018C4030C10FF
:10062000102127272310100C03000080E0F80C0C89
:10063000F8E0800000183E3F3F3F24243F3F3F3E0C
:100640001868035C0C68065C0968095C06680C5C49
:1006500003680FFF5A015901580157015601FF5A0B
:10066000015B015C015D015E01FF57034B033F032A
:1006700057034B033F03FF0000000000027E0044CD
:1006800062524C424A4A343028247E4E4A4A323C16
:100690004A4A300602720E344A4A340C12523C0066
:1006A00000FF010101010101FF0000000000070E31
:1006B0001E2E2E1E0E070000000080C060B058AC39
:1006C00056AC5830A04003070F1F3E3D1A090402E4
:1006D000010000F8FEF999D9F9FEF8FF81818181C6
:1006E0008181FF56302E33004F424E2D5430320060
:1006F0000080C06020E0202040800000FF57AB5702
:1007000001FF2020408000000080C06020E0202009
:100710004080001F376A95A897AC944C241F001F97
:10072000356A95A897AC944C241F00FF97AA958032
:10073000BFAC94AC84FF4541535920204D454449FA
:10074000554D20204841524400387C7C7C38FFFFC6
:10075000F8C0FFFF00F8F800F8F800F8F818F8F80B
:1007600018F8F000FFFF18F8F000F0F818F8F000A3
:10077000F8F83800FFFF03FFFE00FFFF0070781855
:10078000F8F000F0F818F8F000F0F818F8F0FFFFB3
:10079000031FFFFF007FFFC0FFFF00FFFF00FFFF01
:1007A00000FFFF00FFFFC0FF7F007FFFC3F3730068
:1007B000FFFF0000FFFF06070300FFFF007CFEC3F2
:1007C000FFFF007FFFC0F070007FFFC3F37300AE38
:1007D000D5F0A83FD300408D142000A1C8DA1281C3
:1007E0003FD922DB20A4A62EAFB000100441100494
:1007F00000040000104208015E14450F40F00100A3
:100800005955551351555D0D8C927C085755550D12
:100810005E55550D51520C015E55550F5655550FED
:1008200000A0000000A4000000C2280080A2280050
:100830008062080040500D005E7455079C92241F92
:100840005F555D0D9C1445115F1425075F555511CB
:100850005F5114015E54551D1F41101F40F44500A7
:10086000100421071F41181D1F0441105EF0041FD2
:100870009C10041F5E54450F5F9214035ED4451F05
:100880005F92341B5655550D41F005011F04210799
:100890001F4208011FE4410F1743181D07C109013A
:1008A00051564D11DE04D5040000A7048A0800004B
:1008B000D908250ADF0711241FBECFE5D2E0DEBF2D
:1008C000CDBF10E0A0E6B0E0ECECFFE102C0059087
:1008D0000D92AC36B107D9F722E0ACE6B0E001C02A
:1008E0001D92A732B207E1F75CD76ECB89CB8F7729
:1008F00087B987B187B9369A3699FECF84B195B159
:1009000008953FB7F8948091A2019091A301A0911E
:10091000A401B091A50122B708B601FE05C02F3F82
:1009200019F00196A11DB11D3FBFBA2FA92F982F15
:100930008827BC01CD01620F711D811D911D42E010
:10094000660F771F881F991F4A95D1F7089591E088
:1009500090933B01E0E4F1E080E2808388E18183D1
:1009600080E4828380ED83832EE437E03583248323
:100970008BE2868380E3878385E0808788EC8187AC
:1009800029E437E033872287E0E7F1E08DE080A3B8
:10099000A1E9B1E08C91826081608C9326E337E01D
:1009A00033A322A390933F01089590913801915071
:1009B0009093380181E0911180E00895E0E4F1E046
:1009C0008EE2808388E1818383E2828380ED83836A
:1009D00080EF96E095838483E0E7F1E086E580A3ED
:1009E000A1E9B1E08C91826081608C9388EE96E001
:1009F00093A382A388E684A3A5E9B1E08C918260E9
:100A000081608C9383EE96E097A386A388E280931F
:100A1000380181E080933F01089590916200E09158
:100A200061008E2F67E07CDA845E80935201892F0B
:100A300067E076DA8093530188E08093540188E47C
:100A4000809355012BED36E03093570120935601EA
:100A5000892F90E069E070E06CDAE80FF92FF11D62
:100A6000E951FF4F808184FD13C090E080E02AE6C9
:100A70002093580128E22093590128E020935A013D
:100A800028EC20935B0190935D0180935C010895B5
:100A900083ED96E0ECCF2091600088E680934601DC
:100AA00088E1809347018DE08093480180ED809339
:100AB000490181E090E0222311F090E080E06AE1BA
:100AC00070E037DA8156994F90934B0180934A0139
:100AD0008CE680934C0189E180934D0184E0809302
:100AE0004E0187E480934F01822F90E0880F991F79
:100AF000880F991F8958994F909351018093500105
:100B0000089528E030E090E8482F4923F9F0F89460
:100B1000C09AB8987894F894C29ABA987894F8944D
:100B2000C298BA9A789496952150310969F7F89449
:100B3000C09AB8987894F894C29ABA98789486B380
:100B4000F894C298BA9A789481700895F894C098ED
:100B5000B89AE0CFEF92FF920F931F93CF93DF935A
:100B6000082FF894C098B89A7894F894C298BA9AD2
:100B7000789488E7C6DFCFEFDFEF811112C086EAF5
:100B8000E82E81E0F82ED0E0C0E010E0C017D107D9
:100B900044F4F70181917F01B4DF811102C02196F5
:100BA000F5CFF894C098B89A7894F894C29ABA9805
:100BB0007894F894C09AB8987894CE01DF91CF9148
:100BC0001F910F91FF90EF900895CF92DF92EF92D7
:100BD000FF926C01CC0CDD1C90E080E0F12CE12C4C
:100BE000A701960146D928EE33E040E050E076D9DF
:100BF0002F5F3F4F4F4F5F4F20936F003093700038
:100C0000409371005093720060E074E284EF90E0D2
:100C1000A701960147D981E02F3F310541055105D4
:100C200049F040F08F3031F08F5F569547953795FA
:100C30002795F2CF806880BF21502DBD1FBC89B79A
:100C4000806489BFFF90EF90DF90CF900895CF939D
:100C5000DF9320916D0030916E00A9014F5F5F4FCF
:100C6000F901A491A7FF07C010926E0010926D00C9
:100C7000DF91CF9108958A2F6CE06CD9E92FF0E0D5
:100C8000EE0FFF1FE25EFF4FC591D4912E5F3F4FE5
:100C900030936E0020936D00FA01849190E06AE039
:100CA00070E047D99C0183E890E08A1B91096CE0D1
:100CB00070E05CD9862FB9019E0102C03695279558
:100CC0008A95E2F7C901DF91CF917FCF29B72F7BBA
:100CD00029BF90936E0080936D00B9CF2F923F9201
:100CE0004F925F926F927F928F929F92AF92BF923C
:100CF000CF92DF92EF92FF920F931F93CF93DF93E8
:100D000000D000D0CDB7DEB789836A834B83322E03
:100D1000C12CD12C7601C3942B8121502B8322230B
:100D200051F02AE030E040E050E0C701B601A1D820
:100D30006B017C01F1CF23E08A81622F0BD9F0D8BF
:100D4000282E8981622F06D9280E460157013110BD
:100D500007C08824992454018C189D08AE08BF0848
:100D60001C8210E000E0412C512C320143940230EF
:100D700009F472C0013009F471C089818B83C80104
:100D800069E070E0D6D8FC012B81E20FF11DEE0F77
:100D9000FF1FEE0FFF1FE558FF4F608171818281B9
:100DA0009381680D791D8A1D9B1D608371838283E9
:100DB0009383A701960176D8CA01B9012AE030E0F1
:100DC00040E050E06FD88B819C81890F8B8333206A
:100DD00009F447C0623008F18AE696E077DFB30194
:100DE000A2010B8004C0440F551F661F771F0A9491
:100DF000D2F78091770090917800A0917900B0911E
:100E00007A00842B952BA62BB72B80937700909399
:100E10007800A0937900B0937A000F5F1F4F2C8168
:100E2000275F2C832B3109F0A2CF0F900F900F90EA
:100E30000F90DF91CF911F910F91FF90EF90DF9076
:100E4000CF90BF90AF909F908F907F906F905F906A
:100E50004F903F902F9008952B8291CF9A819B8342
:100E60008ECF6230D0F6B301A2010B8004C0440FD4
:100E7000551F661F771F0A94D2F7409550956095CD
:100E800070958091770090917800A0917900B09151
:100E90007A0084239523A623B723B7CFCF93DF937C
:100EA000A82FB62FC62FD0E0282F30E0CE0169E062
:100EB00070E03FD8820F931FFC01E951FF4F408142
:100EC0004F70B9F0CE0169E070E033D8820F931F04
:100ED000FC01E951FF4F8081807F80838091760003
:100EE00081508093760020E06B2F8A2FDF91CF9185
:100EF000F5CEDF91CF9108951F93CF93DF93C82F45
:100F0000D62F142FCBDF8D2F90E069E070E011D841
:100F10008C0F911DFC01E951FF4F812F8F70908143
:100F2000907F982B9083809176008F5F80937600DE
:100F300021E0412F6D2F8C2FDF91CF911F91CECECD
:100F400089B78F7B89BF10926E0010926D0064E1AB
:100F500070E08BE492E039CE89B78F7B89BF109225
:100F60006E0010926D006AE070E088EB91E02DCE8B
:100F700080913E0181FB992790F9282F2170921BC7
:100F800090933C0182FB992790F983FB222720F95B
:100F9000921B909373008F7079F080916C00853074
:100FA00068F491E0980F90936C00882339F01092C8
:100FB000730010923C01089510926C0008959F9266
:100FC000AF92BF92CF92DF92EF92FF920F931F9357
:100FD000CF93DF938C01EB01E7EAF1E080E8DF01DA
:100FE0001D928A95E9F7C801079665E170E0BED7C2
:100FF00097E0981B97FD13C041E050E060E070E07F
:101000006A017B0104C0CC0CDD1CEE1CFF1C9A9510
:10101000D2F7B6014EE350E0CE014D96CED78FEF1A
:101020008C8F89ABFE01EA5BFF4F808375968083CE
:10103000D80123E0B595A7952A95E1F79E01225E98
:101040003F4F10E000E0BB277D018FEFE81AF80A60
:1010500087E090E05C01AA1ABB0ACD0169E070E06C
:1010600068D7800F911FFC01E951FF4FC081CF70FD
:10107000D0E0CC0FDD1FCC0FDD1FC958D94FC70101
:1010800069E070E056D7800F911FFC01E951FF4FD6
:1010900040814F7050E0440F551F440F551F495871
:1010A000594F690170E060E0FE01E60FF71F949070
:1010B000FA01E60FF71F849190E00A2C02C0880F16
:1010C000991F0A94E2F7E92DF0E00A2E02C0F59587
:1010D000E7950A94E2F78E2BF6019081892B819394
:1010E0006F016F5F7F4F64307105F1F60F5F1F4F27
:1010F000295F3F4F0930110509F0AFCFDF91CF9144
:101100001F910F91FF90EF90DF90CF90BF90AF9025
:101110009F900895CF932CDF20913C01222301F171
:1011200080913B01022E000C330B820F932F911DF7
:10113000039663E070E01AD7982F80933B0160E339
:10114000EFD69923A1F190E08550890F8093460155
:1011500080E38093470100DF81E080933F01CFD59A
:1011600040913E0180913D0190E080959095242F23
:10117000207130E082239323C1E0892B51F08091CC
:101180003B01823029F443FF03C083E080933B019D
:10119000C2E0B5D590933A0180933901009721F0D0
:1011A000BC0190E080E053D68C2FCF9108959CE055
:1011B000CBCF2F923F924F925F926F927F928F92FE
:1011C0009F92AF92BF92CF92DF92EF92FF920F93D6
:1011D0001F93CF93DF93CDB7DEB76F970FB6F89419
:1011E000DEBF0FBECDBF6091390170913A0161152C
:1011F000710519F090E080E02AD643E0D42E8E01EC
:101200000F5F1F4F53E0852E912CA12CB12C62E073
:10121000462E512C612C712CCCD5A501940142D6BF
:1012200023E0F22EF60EC5D5A30192013BD6660F40
:1012300061506C8F180133E0C32EBBD5A50194011A
:1012400031D693E0E92EE60EB4D5A30192012AD659
:10125000262F220F21508F2D90E063E070E086D67C
:1012600063E05ED6382FF101A1014D5F5F4FA3E02F
:101270008E2D6A2F6FD6930F9193E20EE417F50728
:10128000B9F71F018C8DF80ECA94C110D6CF075F35
:101290001F4FDA94D110C0CFE7EEF0E081E5DF0117
:1012A0001D928A95E9F7EBE7F0E08CE6DF011D92ED
:1012B0008A95E9F7109276001092770010927800E4
:1012C0001092790010927A0074D58B019C01C09025
:1012D0003B01EC2DF0E0FD8FEC8FCF016AE070E078
:1012E00028D64C01990FAA08BB08C901B8012AE009
:1012F00030E040E050E0D6D5DC01CB01880D991DEF
:10130000AA1DBB1D64E270E014D68A5C9F4F7C016D
:10131000CE0101966C01D7019496BF8FAE8F8AE003
:10132000282E312C412C512CF70185919591A591B6
:10133000B491782E892E9A2E0B2FB12CA12C672DCB
:10134000782D892D902FA2019101ACD5662309F14A
:10135000E1E0F0E0EC0FFD1FEA0DFB1D1081F6014E
:101360006184E2E1F0E0EC0FFD1FE60FF11D40812A
:101370004F5F662D812FC0DD862D90E069E070E023
:10138000D8D5810F911DFC01E951FF4F808180610B
:101390008083672D782D892D902FA201910182D510
:1013A000722E832E942E052FFFEFAF1ABF0A89E00D
:1013B000A816B10421F694E0E90EF11CAFEFCA1AA9
:1013C000DA0AEE8DFF8DEE16FF0609F0ADCF8091A3
:1013D000760080937500109274008CE3809338013E
:1013E0005ADB1BDB8DE5809374018091750182606F
:1013F0008160809375018C8D9D8D67E070E099D53B
:101400008F519A4F909377018093760186ED95E006
:101410005DDC81E080933F016F960FB6F894DEBFEC
:101420000FBECDBFDF91CF911F910F91FF90EF9035
:10143000DF90CF90BF90AF909F908F907F906F90F4
:101440005F904F903F902F9008951F93CF93DF931D
:101450008FDD8091380190913E0194FF51C08C3313
:10146000E0F1C0E080913C0190917400992309F46F
:101470004FC0882391F020916000082E000C990B3A
:10148000820F911D0A966AE070E070D5809360002B
:1014900002DB62DD81E080933F0180913E0180713B
:1014A00090E020913D0130E02095309582239323F8
:1014B000892B71F0109274008CE38093380140DD29
:1014C00081E080933F0180917400811101C0A5DA11
:1014D00082E0DF91CF911F9108958F5F8093380153
:1014E0008C3309F0BECF90917600809175008917FA
:1014F00008F0B7CF10924501109244015ADEB1CFE7
:101500008150C1E0893008F0C0E010923801AACFC4
:1015100030917300811102C03323F9F020916100F2
:10152000082E000C990B820F911D0996E9E0F0E05E
:10153000BF011CD58093610080916200232F330F7F
:10154000330B820F932F911D0996BF010FD5809306
:10155000620002DD81E080933F01CC23A9F0D091AD
:101560006200AD2FB0E0C09161002C2F30E0CD01C2
:1015700069E070E0DED4820F931FFC01E951FF4F58
:10158000808184FF1FC0DCDC809138018A3009F043
:101590009ECFC1E0C093740084E68093520188E13D
:1015A0008093530184E18093540188E48093550132
:1015B0008DEF95E09093570180935601C1DCC09365
:1015C0003F0181CFCD0169E070E0B3D4820F931F5A
:1015D000FC01E951FF4F80818F7010916000112351
:1015E00091F1181791F18FE596E070DB412F6D2F87
:1015F0008C2F82DC8091770090917800A091790007
:10160000B0917A00892B8A2B8B2B31F58091760053
:10161000813529F581E496E059DB81E196E028E007
:101620002093400128E1209341012CE020934201C6
:1016300020ED20934301909345018093440181E084
:1016400080933F01A1CF8823A9F284E596E03EDB99
:101650006D2F8C2F23DCCECF89E296E0E0CF90E097
:1016600080E0DDCF1F920F920FB60F9211242F93BF
:101670003F938F939F93AF93BF9380919E019091DF
:101680009F01A091A001B091A10130919D0123E0A3
:10169000230F2D3768F126E8230F0296A11DB11DF7
:1016A00020939D0180939E0190939F01A093A001A0
:1016B000B093A1018091A2019091A301A091A401F6
:1016C000B091A5010196A11DB11D8093A201909337
:1016D000A301A093A401B093A501BF91AF919F91E5
:1016E0008F913F912F910F900FBE0F901F901895E3
:1016F0000196A11DB11DD4CF1F920F920FB60F926C
:1017000011242F933F934F935F936F937F938F9306
:101710009F93AF93BF93EF93FF9380916F0090914E
:101720007000A0917100B0917200892B8A2B8B2BD5
:10173000D9F080916F0090917000A0917100B091EC
:1017400072000197A109B10980936F009093700016
:10175000A0937100B0937200892B8A2B8B2BA9F078
:1017600088B390E1892788BBFF91EF91BF91AF913A
:101770009F918F917F916F915F914F913F912F91A9
:101780000F900FBE0F901F901895C49889B78F7B4C
:1017900089BF80916D0090916E00892B29F357DAF3
:1017A000E3CFCF93DF93CDB7DEB729970FB6F89489
:1017B000DEBF0FBECDBF83E08ABD83BF789489B7FB
:1017C000826089BF80E48CBD8FEF8DBD87EC80BFC8
:1017D00087E886B9BC9AC498F894C29ABA98789463
:1017E000F894C09AB89878944EE150E06EEC77E0A7
:1017F00086EA91E035D38EE1ADD9E0E4F1E080E313
:10180000DF011D928A95E9F7E0E7F1E088E2DF0168
:101810001D928A95E9F780919C0190E066E070E066
:1018200088D38C55974FFC0185919491FC010995C3
:101830002FB7F89480919E0190919F01A091A001F3
:10184000B091A1012FBF8093980190939901A0932B
:101850009A01B0939B01212CB4E03B2E16E9412E56
:10186000512C80913E0180933D0180E840D89A83BD
:10187000898383E83CD89C0166B370E060957095DD
:10188000F3E0660F771FFA95E1F7462F4071C1012B
:1018900069817A81861B970BB20168D3462BC101FF
:1018A000821B930BB20162D3660F771F660F771FFF
:1018B000462B40933E0180919C0190E066E070E0F1
:1018C00038D38A55974FFC0185919491FC01099575
:1018D000982E80919C0190E066E070E02AD38855B4
:1018E000974FFC01259134913C832B8380913F01DC
:1018F000882309F454C130E43093A60107E010E0D6
:10190000380167E0661A71088B819C81892B09F484
:101910009EC067EA71E0C301EB81FC810995A0E4F8
:10192000B1E01496ED91FC911597309709F4A4C09D
:1019300011964C911197842F042E000C990B0817C7
:1019400019070CF499C013962C9113972F7330E05C
:10195000B901680F791F661677060CF08DC0CC9020
:101960000C2C000CDD081296EC901297F12CB601AD
:101970006E0D7F1D161617060CF07EC05801A81AB2
:10198000B90A53E0B594A7945A95E1F78A2C4770A9
:10199000C701B501CED28E0F9F1FB60169557E4F8C
:1019A00078876F83295F3F4FB901E3E075956795AD
:1019B000EA95E1F77A83698330E020E0BC016E1993
:1019C0007F09E8E0F0E0E41BF109FE83ED83E21615
:1019D000F30609F451C0F601E20FF31FE038F105F8
:1019E00070F5E981FA8150E0AE16BF064CF4FC01B7
:1019F000E20FF31F5491042E01C0550F0A94EAF729
:101A0000442371F0181464F4FB01E20FF31FE49116
:101A1000F0E00D8002C0F595E7950A94E2F75E2BA1
:101A20001396EC911397E07CC9F450955987EF8198
:101A3000F8855081F9855F23EF81F8855083EF8128
:101A4000F8853196F887EF832F5F3F4FC0CFA7EA25
:101A5000B1E0E0E81D92EA95E9F761CFE03429F4BE
:101A6000EF81F885F0815F2BE7CFE03829F7EF8130
:101A7000F885F0815F27E0CF1696F1E0A037BF0729
:101A800009F04FCFC801039766E070E06FD2660F90
:101A9000771F660F771FDB01A459BE4F819521E0A8
:101AA000A037B20708F46CC031E0A839B30708F0DA
:101AB00067C012966D917C9113977A836983672B27
:101AC00009F45EC02C91E82FFF27E1950CF4F09506
:101AD000AF01922F11967C911197E981FA8170FFE5
:101AE00040C0F490FF2009F44BC066E0620F33ED74
:101AF0003F0D3E3270F5EF2DFF0CFF0BEE0FFF1F79
:101B0000EE0FFF1FE85CF84FC590D590E590F4907C
:101B1000E22F220FFF0BE955FE4F727097FD0EC0AA
:101B20002C2D2F731816FCF4082E01C0220F0A94D6
:101B3000EAF73081772309F1232B208326E0F694FE
:101B4000E794D794C7942A95D1F731969F5F69138C
:101B5000E5CF29813A812F5F3F4F3A832983262F92
:101B6000B8CFF080BFCF882321F330E0042E02C02D
:101B7000359527950A94E2F7DCCF20952323DDCF16
:101B800014968A5F88300CF48ACF81E8E3D7085F27
:101B90001F4F0734110509F0B3CE10923F01809119
:101BA0009C019816D1F090929C0180E3A0E4B1E0F2
:101BB0001D928A95E9F788E2E0E7F1E011928A95B3
:101BC000E9F7892D90E066E070E0B3D18C55974F2E
:101BD000FC0185919491FC010995C0909801D090E9
:101BE0009901E0909A01F0909B01F2E3CF0ED11C95
:101BF000E11CF11CC0929801D0929901E0929A01E7
:101C0000F0929B012FB7F89480919E0190919F01D3
:101C1000A091A001B091A1012FBFC81AD90AEA0A68
:101C2000FB0AF7FC1ECE6DD67A836983C114D104FA
:101C3000E104F10461F40FCE21E0C21AD108E108F9
:101C4000F10869817A8168517C4F7A83698359D61A
:101C5000A981BA816A1B7B0B683E734038F3C114BB
:101C6000D104E104F10441F7F6CD8F929F92AF9237
:101C7000BF92CF92DF92EF92FF92CF93DF93EC016E
:101C8000688179818A819B81611571058105910542
:101C900021F464E279ED8BE597E02DE133EF41E04B
:101CA00050E000D149015A0127EA31E440E050E018
:101CB000E0D06B017C012CEE34EF4FEF5FEFC501FC
:101CC000B401D7D0DC01CB018C0D9D1DAE1DBF1D15
:101CD000B7FF03C00197A109B04888839983AA83FD
:101CE000BB839F77DF91CF91FF90EF90DF90CF90F4
:101CF000BF90AF909F908F900895B7DF089583E6CF
:101D000090E0B3DF0895B0E0A0E08093630090938B
:101D10006400A0936500B093660008958F929F922F
:101D2000AF92BF92CF92DF92EF92FF92CF93DF9369
:101D3000EC01688179818A819B816115710581053A
:101D4000910521F464E279ED8BE597E02DE133EF25
:101D500041E050E0A7D049015A0127EA31E440E0D0
:101D600050E087D06B017C012CEE34EF4FEF5FEF3A
:101D7000C501B4017ED0C60ED71EE81EF91EF7FEBF
:101D800006C081E0C81AD108E10880E8F80AC882D4
:101D9000D982EA82FB82C701B6019F77DF91CF919A
:101DA000FF90EF90DF90CF90BF90AF909F908F907B
:101DB00008958F929F92AF92BF92CF92DF92EF924F
:101DC000FF92609167007091680080916900909126
:101DD0006A00611571058105910521F464E279EDD0
:101DE0008BE597E02DE133EF41E050E05BD0490116
:101DF0005A0127EA31E440E050E03BD06B017C011E
:101E00002CEE34EF4FEF5FEFC501B40132D0C60EB8
:101E1000D71EE81EF91EF7FE06C081E0C81AD108D9
:101E2000E10880E8F80AC0926700D0926800E0926A
:101E30006900F0926A00C701B6019F77FF90EF90AA
:101E4000DF90CF90BF90AF909F908F900895609358
:101E50006700709368008093690090936A0008950A
:101E6000FB01DC0102C005900D9241505040D8F7B3
:101E70000895EE27FF27AA27BB2708C0A20FB31F8C
:101E8000E41FF51F220F331F441F551F969587959A
:101E90007795679598F37040A9F7009799F7BD017A
:101EA000CF010895052E97FB16F400940FD057FD2F
:101EB00005D014D007FC02D046F408C050954095D8
:101EC000309521953F4F4F4F5F4F089590958095E6
:101ED000709561957F4F8F4F9F4F0895A1E21A2E05
:101EE000AA1BBB1BFD010DC0AA1FBB1FEE1FFF1FBE
:101EF000A217B307E407F50720F0A21BB30BE40B0E
:101F0000F50B661F771F881F991F1A9469F7609554
:101F10007095809590959B01AC01BD01CF0108950E
:101F2000002480FD060E660F11F08695D1F7802DF6
:101F300008950024552704C0080E591F880F991FC3
:101F4000009729F076956795B8F37105B9F7802D5C
:101F5000952F0895991B79E004C0991F961708F0F2
:101F6000961B881F7A95C9F78095089597FB072ED1
:101F700016F4009406D077FD08D00BD007FC05D0EE
:101F80003EF4909581959F4F0895709561957F4F90
:101F90000895AA1BBB1B51E107C0AA1FBB1FA617B0
:101FA000B70710F0A61BB70B881F991F5A95A9F702
:101FB00080959095BC01CD010895DC0101C06D9321
:0C1FC00041505040E0F70895F894FFCF26
:0C1FCC00010404010000000100000000FE
:00000001FF
