:100000006FC389C388C336CA86C3EAC984C383C39E
:1000100082C381C380C37FC37EC37DC37CC3480AC0
:100020004F0A4C0A4F0A510A4D0A530A4F0A540FFD
:10003000FF47084B084E084D084B084D084E085323
:1000400008FF450749074C07510747074A074E076E
:100050005307FF4306480645064A0647064C06482E
:10006000064D06FF4804540460044C04580464041C
:100070004F045B046704540460046C04FF4704539A
:10008000045F044A04560462044F045B046704FFDF
:10009000450351035D034803540360034D035903B3
:1000A0006503FF520257025C026102FF4D025102DA
:1000B0005502FF4A024E02FF3B01FFB420A622B5C3
:1000C00024E4263429A72B402E0031EA330037459B
:1000D0003ABC3D480C4A0C4C0C4D0C4F24FF544983
:1000E0004D450053434F524500370D3610351334FC
:1000F000163319321C311F3022FF4F56455200472C
:10010000414D4500B8000000B300AC00A3009000D2
:100110007D0064005300420031001E001E001E00DE
:100120001E001E001E001E00AA55AA0502010201A3
:10013000020102010201020102010205AA55AA2AD6
:10014000552A502040204020402040204020402080
:100150004020502A552AFE01010101010111190D0B
:10016000050585CD7931010101010101FE3F4040C6
:100170004040404050585C565351505050404040D1
:100180004040403FFE01010101010181E179190177
:10019000FDFD0101010101010101FE3F4040404020
:1001A000404043434242425F5F4242404040404001
:1001B000403FFE0101010101013179CD858585CDE9
:1001C0007931010101010101FE3F404040404040C2
:1001D000464F59505050594F464040404040403F94
:1001E000FE01011109FDFD01010101F1F9CD4545B6
:1001F00045CD89090101FE3F404050505F5F50509E
:100200004040474F58505050584F4740403FFE01E4
:1002100009090D058585CD79310111190D05058572
:10022000CD793101FE3F40444C58505050594F4613
:100230004050585C565351505050403FFE01F1F928
:10024000CD454545CD89090181E1791901FDFD01C2
:100250000101FE3F40474F58505050584F474043D0
:10026000434242425F5F4242403FFE011109FDFDB1
:100270000101191D85E57D190179FD8585FD79014E
:10028000FE3F4050505F5F5040585E5751505040C5
:100290004F5F50505F4F403FFE01191D85E57D19AE
:1002A000FDFD4545C58501F9FD4545CD8901FE3F6B
:1002B00040585E57515050485850505F4F404F5F24
:1002C00050505F4F403FFE01FDFD4545C585011182
:1002D00009FDFD0101191D85E57D1901FE3F40481D
:1002E0005850505F4F4050505F5F5040585E5751DC
:1002F0005050403FFE0111FDFD0101E111F1E1010E
:100300002111F1E101E101F1F101FE3F40505F5F98
:1003100050404F505F4F405C5F53504047445F5FD9
:10032000403FFEE7E37B1B83E7FF1FEF0F1FFF1F2D
:10033000FF0F0FFF1FEF0F1FFE3F6761686E6F6FAC
:100340007F706F60707F787B60607F716E60713FDF
:10035000FE0707FF0303FFFF1FEF0F1FFF1FEF0F36
:100360001FFF1F0F6FDFFE3F7C7C7D60607D7F7015
:100370006F60707F766D60707F70606F703FFE871A
:10038000037B7B0387FFDF0F0FFFFF1FEF0F1FFFB5
:10039000DFEF0F1FFE3F70606F6F60707F6F6060F8
:1003A0006F7F766D60707F63606C6F3FFE7B0101D5
:1003B0007FFF83017575058FFFFFFFFFFFFFFFFFC5
:1003C000FFFFFE3F7F7F7F7F7F7F7F5D55416B7F9C
:1003D0006B55416B7F636F41413FFEBB396D6D01D2
:1003E00093FF7B391D4D6173FFFFFFFFFFFFFFFF91
:1003F000FE3F7F7F7F7F7F7F7F7D4D41717F6341A8
:10040000556D7F6B55416B3FFE83017575058FFF01
:10041000A1217575058DFFFFFFFFFFFFFFFFFE3F69
:100420007F7F7F7F7F7F7F5151456D7F5D55416B22
:100430007F6341556D3FFE7B01017FFFBB396D6DD1
:100440000193FF7B01017FFFFFFFFFFFFE3F7F7FE7
:100450007F7F7F7F7F635D41637F7D4D41717F4DF6
:1004600045515B3F56302E31004F424E2D543033B4
:10047000000080C06020E0202040800000FF57ABDB
:100480005701FF2020408000000080C06020E02055
:10049000204080001F376A95A897AC944C241F0019
:1004A0001F356A95A897AC944C241F00FF97AA9516
:1004B00080BFAC94AC84FF505245535320425554F6
:1004C000544F4E00E0F0F8FCFCFE7E3E3E3E3E7E89
:1004D000FEFCFCF8F0E00000C0F0F8FCFCFE3E1E64
:1004E0001E1E1E3EFEFCFCF8F0C0000000000000D6
:1004F0000080E0F0F8FCFEFEFEFEFEFE00000000C4
:10050000000000F0F8FCFCFE3E1E1E1E1E3EFEFC1F
:10051000FCF8F000010101010181C0E0F0F8FCFEEF
:100520007F3F1F0F07030000FFFFFFFFFFFF0000DB
:1005300000000000FFFFFFFFFFFF0000E0F0F8FEFB
:10054000FFFFDFC7C3C1FFFFFFFFFFFFC0C0C0C089
:100550000000C0E3F7FFFFFF7E3C3C3C3C7EFFFF1A
:10056000FFF7E3C070787C7E7F7F7F7F7F7B797829
:100570007878787878780000030F1F3F3F7F7C7889
:100580007878787C7F3F3F1F0F030000030303034D
:100590000303030303037F7F7F7F7F7F0303030343
:1005A00000000F1F3F3F7F7F7C787878787C7F7FCB
:1005B0003F3F1F0F00AED5F0A83FD300408D142061
:1005C00000A1C8DA12813FD922DB20A4A62EAFB049
:1005D000001000700100C0000C00CAA77C0A42F5A0
:1005E0005508534248195EF55112003000000027AB
:1005F000450040941C0014F3190504F11104200473
:1006000000000441100400040000104208015E14C0
:10061000450F40F001005955551351555D0D8C9211
:100620007C085755550D5E55550D51520C015E55C0
:10063000550F5655550F00A0000000A4000000C241
:10064000280080A228008062080040500D005E74DF
:1006500055079C92241F5F555D0D9C1445115F1436
:1006600025075F5555115F5114015E54551D1F41FB
:10067000101F40F44500100421071F41181D1F04DE
:1006800041105EF0041F9C10041F5E54450F5F92E2
:1006900014035ED4451F5F92341B5655550D41F02F
:1006A00005011F0421071F4208011FE4410F1743E2
:1006B000181D07C1090151564D1100F0450000F009
:1006C000010040F4010080100C0010044110E5030B
:1006D000DC030000BC03BB06000020078C0791066A
:1006E00011241FBECFE5D2E0DEBFCDBF10E0A0E6F3
:1006F000B0E0ECE8FDE102C005900D92A836B1072C
:10070000D9F721E0A8E6B0E001C01D92A33BB207F3
:10071000E1F705D739CB74CC8F7787B987B187B923
:10072000369A3699FECF84B195B108953FB7F894C3
:1007300080912E0190912F01A0913001B091310153
:1007400022B708B601FE05C02F3F19F00196A11D82
:10075000B11D3FBFBA2FA92F982F8827BC01CD010B
:10076000620F711D811D911D42E0660F771F881F6A
:10077000991F4A95D1F70895E3ECF0E088E1808372
:1007800080E1818380E5828388E5838384EC94E043
:1007900095838483EBE9F0E08FE180A3ACEBB0E0DC
:1007A0008C91826081608C9387EB94E093A382A309
:1007B00081E0809323010895909198009150909347
:1007C000980081E0911180E00895E3ECF0E08EE282
:1007D000808388E1818383E2828380E5838381E76C
:1007E00094E095838483EBE9F0E086E580A3ACEBAD
:1007F000B0E08C91826081608C9389E694E093A351
:1008000082A388E684A3A0ECB0E08C918260816032
:100810008C9384E694E097A386A38CE3809398005E
:1008200081E0809323010895CF92DF92EF92FF92AF
:10083000CF93DF936091970070E06C597F4F072E44
:10084000000C880B990BC0E9D0E03AE0C32ED12C04
:10085000E12CF12CA701960128DA605D6D83B901C6
:10086000CA012197611571058105910599F760917C
:100870008F0070E090E080E0C2E9D0E02AE0C22E74
:10088000D12CE12CF12C2197A70196010EDA605DA5
:100890006983B901CA01611571058105910599F74F
:1008A00080E290E0C039D90718F021978983F9CF09
:1008B0008AE38093930081E080932301DF91CF91BD
:1008C000FF90EF90DF90CF90089580918E008F5F22
:1008D0008E3119F080938E00089510928E008091D1
:1008E00097008F5F8C3319F0809397009DCF109203
:1008F000970080918F008F5F80938F00F7CF8430B7
:1009000090F4643080F4E62F660FFF0BEE0FFF1FAC
:10091000EE0FFF1FE80FF11D87FDFA95E258FF4F1C
:1009200080818F7108958FEF089528E030E090E87E
:10093000482F4923F9F0F894C09AB8987894F8941D
:10094000C29ABA987894F894C298BA9A789496957C
:100950002150310969F7F894C09AB8987894F894BE
:10096000C29ABA98789486B3F894C298BA9A78944E
:1009700081700895F894C098B89AE0CFEF92FF92F2
:100980000F931F93CF93DF93082FF894C098B89AD2
:100990007894F894C298BA9A789488E7C6DFCFEF33
:1009A000DFEF811112C082E3E82E81E0F82ED0E063
:1009B000C0E010E0C017D10744F4F70181917F0136
:1009C000B4DF811102C02196F5CFF894C098B89A8F
:1009D0007894F894C29ABA987894F894C09AB8988F
:1009E0007894CE01DF91CF911F910F91FF90EF90FE
:1009F0000895CF92DF92EF92FF922091680030919C
:100A00006900A9014F5F5F4FF901A491A7FF09C0D9
:100A10001092690010926800FF90EF90DF90CF90E5
:100A200008958A2F6CE07DD9E92FF0E0EE0FFF1FCB
:100A3000E554FF4FC590D4902E5F3F4F309369002F
:100A400020936800FA01449183E890E08A1B9109A1
:100A50006CE070E072D902C0D694C7946A95E2F750
:100A6000CC0CDD1C842F90E06AE070E049D9BC0119
:100A7000990F880B990BF12CE12CA7019601E0D876
:100A800028EE33E040E050E010D92F5F3F4F4F4F4A
:100A90005F4F20936A0030936B0040936C0050933B
:100AA0006D0060E074E284EF90E0A7019601E1D868
:100AB00081E02F3F31054105510549F040F08F306D
:100AC00031F08F5F5695479537952795F2CF80681F
:100AD00080BF21502DBD1FBC89B7806489BF9CCFCA
:100AE0009C0199B79F7B99BF309369002093680060
:100AF000232B09F07ECF08952F923F924F925F9261
:100B00006F927F928F929F92AF92BF92CF92DF921D
:100B1000EF92FF920F931F93CF93DF9380907A0011
:100B200090907B00A0907C00B0907D00312C212C17
:100B3000D0E0C0E0EE24E394F12C67E1462E7FEC98
:100B4000672E5D2E550C550C30E020E0712C810194
:100B5000000F111F000F111FF801E20FF31FE258E1
:100B6000FF4F808185FF18C091E0980F9F71807EB4
:100B7000892B8083A701092E02C0440F551F0A94B8
:100B8000E2F7052E000C660B770B840E951EA61E51
:100B9000B71EC91708F4C92FED2FE70DF0E0C80103
:100BA000820F931F82589F4FDC018C918F7109F443
:100BB00061C090E06EE270E0A3D8885D9E4F6C014A
:100BC000CF0166E070E09CD8AC01FC01ED53FF4F13
:100BD000872D68E18CD88083518242824A535F4FCF
:100BE000DA016C92D582C4822F5F3F4F7394F4E098
:100BF0007F12B2CF8FEF281A380ADC5FD03109F0AC
:100C0000A0CF90E4891692E499069FE0A906B1046A
:100C1000D8F580927A0090927B00A0927C00B092EE
:100C20007D0060917A0070917B0080917C009091B2
:100C30007D0008E710E02AE0C22ED12CE12CF12C37
:100C400001501109A701960130D8605DD8011196B5
:100C50006C93B901CA01611571058105910581F790
:100C600080E2B0E003371B07E0F001501109F80102
:100C70008183F7CFCF0166E070E042D88D539F4F5C
:100C8000FC0115821482B0CF8FE392E4AFE0B0E0B4
:100C900080937A0090937B00A0937C00B0937D00BA
:100CA000C0CF81E080932301EC2FF0E0EE0FFF1F17
:100CB000EC5FFE4F85919491DF91CF911F910F9141
:100CC000FF90EF90DF90CF90BF90AF909F908F906C
:100CD0007F906F905F904F903F902F9001CF209129
:100CE000990030E02095309540919A0050E02423FF
:100CF000352390E02823392381E0232B09F480E079
:100D00000895EBE9F0E088E2DF011D928A95E9F7AA
:100D10000895E3ECF0E080E6DF011D928A95E9F7A3
:100D20000895EF92FF920F931F93CF93DF938C015F
:100D30000870112783FF02C007E110E0085D1E4F15
:100D4000EB017B0180E6E80EF11C47E150E0B801C1
:100D5000CE016DD71F8A6896CE15DF05B1F780E208
:100D6000FE0111928A95E9F7DF91CF911F910F91C2
:100D7000FF90EF900895AAD6009721F0BC0190E073
:100D800080E04CD780E1ABDF811102C081E00895A3
:100D900082E00895EF92FF920F931F93CF93DF931A
:100DA000EFD62091720030E050E040E062D7D0E012
:100DB000C0E0F12CE12C8E01000F111F000F111F5C
:100DC000F801EE0DFF1DE258FF4F80818F7189F40D
:100DD0008FEF860F61110CC0D3D62AE030E040E0DF
:100DE00050E047D7672B682B692B79F492E00EC04F
:100DF000682F8FEFE81AF80A84E0E816F10401F78B
:100E00002196C430D105A9F614C091E00E0D1F1D26
:100E1000F801E258FF4F8081807E892B808380918A
:100E20007200815080937200CC0FCC0FCE0DC09316
:100E30007100DF91CF911F910F91FF90EF90089576
:100E4000EF92FF920F931F93CF93DF9362DF59DFEF
:100E5000CBE9D0E083E68883ECE9F0E08081826032
:100E60008160808383EE90E09B838A8389E68C8710
:100E7000E8EAF0E080818260816080838EED90E01E
:100E80009F878E8710927A0010927B0010927C00D0
:100E900010927D0083E7E82E80E0F82ED7011696A9
:100EA0001C9210928E001092970010928F0000E911
:100EB00010E0F8011682B8DC9DE59C83E0EAF0E0E2
:100EC000808182608E7F8083FF82EE82988BECEA45
:100ED000F0E0808182608E7F80831B8B0A8B80E1B3
:100EE000EEE7F0E0DF01982F1D929A95E9F78093E5
:100EF000720050DF4FDF00DE109298008FEF80937A
:100F000071001092700083ED90E0DF91CF911F91FE
:100F10000F91FF90EF90E4CD2F923F924F925F920E
:100F20006F927F928F929F92AF92BF92CF92DF92F9
:100F3000EF92FF920F931F93CF93DF9300D000D0D7
:100F4000CDB7DEB7809198008E3118F48F5F809313
:100F50009800809170008111DCC0B7DC82E0BFDEB8
:100F6000A82E81E0BCDEA81AA0926F0084E0B7DE54
:100F7000B82E88E0B4DEB81AB0926E00AA2009F14B
:100F8000BB2009F1A2E03A2E80919800823108F44A
:100F900093C1832D0F900F900F900F90DF91CF9101
:100FA0001F910F91FF90EF90DF90CF90BF90AF9087
:100FB0009F908F907F906F905F904F903F902F9079
:100FC0000895BB20F9F2912C1A822B2C0B2C000CCB
:100FD0003308EA2C0A2C000CFF0821E043E0642EC1
:100FE0006918B212692C712C062D062C000C110BFD
:100FF000000F111F000F111F31E023E0522E571870
:10100000A312572CC52C052C000CDD08C8018C0D33
:101010009D1D82589F4F9C838B83DC018C91982F60
:101020009F739C938F71882E09F442C01C92462CAA
:10103000EB81FC818081F82FF295F695F695F3709F
:10104000F9839F2F9F5F9295990F990F907C8F73D3
:10105000892BAB81BC818C935A0C4B0C642D852D54
:101060004EDC882329F3642D440C770B252D550C79
:10107000330B88122EC0FB01EE0FFF1FEE0FFF1F78
:10108000E20FF31FE258FF4F808185FD22C080628E
:101090008083809172008F5F80937200F801EC0D65
:1010A000FD1DE258FF4F8081807C11F0B1E0BA83D2
:1010B0007394E4E07E12A0CF93949E128ECFFA81B7
:1010C000FF2309F45FC081E0809398008093700053
:1010D00059C0F801EC0DFD1DE258FF4F9981929522
:1010E000990F990F907C80818F73892B808362196F
:1010F00073092E193F09660F771F660F771F620F5E
:10110000731FFB01E258FF4F8081807E882A808216
:10111000C5CF813009F0C5C0D8DB8091980062E06E
:10112000362E8830C9F536DEE7DC109298008091C3
:101130007200811125C02FEF2A830A810F5F198267
:10114000EA80E394E394602F8981D9DB182F882308
:10115000B9F0602F89818150D2DB181789F0F980AE
:10116000F394602F8F2DCBDB181751F06A818981A2
:10117000C6DB181729F06E2D8981C1DB181365C0F5
:1011800010927000B2E03B2E80917000882309F429
:10119000FBCE813009F0FDCE20919800293008F077
:1011A000F8CEA0916E006A2EAA0F7708822F63E016
:1011B0009ED560916F009BD5882EF0E0E0E0512C29
:1011C00030E06F0193E0CC0CDD1C9A95E1F710E064
:1011D00000E040E05F01AA0CBB1CAA0CBB1CC501CF
:1011E000800F911F82589F4FDC019C90929496949F
:1011F000969483E09822852D840F90E066E070E05D
:101200007FD58D539F4F7C01892D682D70D5982FE8
:10121000842F68E16CD5890FD7018C93892D90E0DC
:10122000B3016ED5B9016CD58C0D9D1D880F11963B
:101230008C930F5F1F4F4F5F443089F63196B4E0B7
:101240005B0E40E15412BDCFC7C0F9823F2D343050
:1012500009F079CF0A83033009F06FCF80E68093DD
:10126000BB008091BC00826081608093BC008FEFE6
:1012700090E09093BE008093BD0089E68093BF000C
:101280008091C000826081608093C0008AEF90E00E
:101290009093C2008093C10089EE90E021DC82E04F
:1012A00015CF823031F480E11ADD3324339481117B
:1012B0006BCFF2E03F2E6DCED12CC12CE12CE2E0C1
:1012C0004E2E512C612C712C882483949E2C990CC9
:1012D000990C10E000E05601AA0CBB1CAA0CBB1C28
:1012E000F501E00FF11FE258FF4F4081498345FFB0
:1012F00044C04F71498320919800822F90E0481795
:101300001906DCF1421B49833BD4A9812A2F220F05
:10131000330B2F5F3F4F032E000C440B550BA9D40A
:10132000F62EB981FB1A8F2D0F2C000C990B97FF0D
:1013300003C0919581959109E981E81BE98320D447
:10134000A301920196D4672B682B692B19F0F981C0
:10135000F195F9838E2D800F90E066E070E0D0D497
:10136000FC01ED53FF4F802F68E1C1D48F0D8083C6
:101370002981290D2183809223010F5F1F4F0430A3
:10138000110509F0ADCF3FEFC31AD30A44E0E40ED4
:1013900080E1E8129BCF3091710037FDFACD80914A
:1013A0009800883008F0F5CD20E480FF05C0232F99
:1013B000259525952295207F832F032E000C990BD0
:1013C00066E070E09DD4FC01ED53FF4F832F8370E6
:1013D00068E18DD48083218381E080932301D9CD7E
:1013E0001F920F920FB60F9211242F933F938F935A
:1013F0009F93AF93BF9380912A0190912B01A0916D
:101400002C01B0912D013091290123E0230F2D37BC
:1014100068F126E8230F0296A11DB11D2093290132
:1014200080932A0190932B01A0932C01B0932D015E
:1014300080912E0190912F01A0913001B091310146
:101440000196A11DB11D80932E0190932F01A093B1
:101450003001B0933101BF91AF919F918F913F9136
:101460002F910F900FBE0F901F9018950196A11D00
:10147000B11DD4CF1F920F920FB60F9211242F934C
:101480003F934F935F936F937F938F939F93AF930C
:10149000BF93EF93FF9380916A0090916B00A091AE
:1014A0006C00B0916D00892B8A2B8B2BD9F0809129
:1014B0006A0090916B00A0916C00B0916D00019753
:1014C000A109B10980936A0090936B00A0936C000E
:1014D000B0936D00892B8A2B8B2BA9F088B390E1F8
:1014E000892788BBFF91EF91BF91AF919F918F9119
:1014F0007F916F915F914F913F912F910F900FBE10
:101500000F901F901895C49889B78F7B89BF8091E1
:10151000680090916900892B29F36BDAE3CFCF93B0
:10152000DF93CDB7DEB72E970FB6F894DEBF0FBEB0
:10153000CDBF83E08ABD83BF789489B7826089BFBD
:1015400080E48CBD8FEF8DBD87EC80BF87E886B9C6
:10155000BC9AC498F894C29ABA987894F894C09AAD
:10156000B89878944EE150E064EB75E082E391E046
:101570005ED38EE103DACDDBC4DB8091280190E0FD
:1015800066E070E0BDD38253994FFC018591949140
:10159000FC0109952FB7F89480912A0190912B01B5
:1015A000A0912C01B0912D012FBF80932401909325
:1015B0002501A0932601B093270180919A00809382
:1015C000990080E8A9D89A83898383E8A5D89C01EB
:1015D00066B370E060957095E3E0660F771FEA955B
:1015E000E1F7462F407180E094E069817A81861BA3
:1015F000970B66E970E0A1D3462B80E094E0821B54
:10160000930B66E970E099D3660F771F660F771F1B
:10161000462B40939A008091280190E066E070E0AC
:101620006FD38053994FFC0185919491FC010995EA
:10163000B82E8091280190E066E070E061D38E5270
:10164000994FFC01259134913C832B838091230198
:10165000882309F495C180E48093320107E010E00B
:10166000B801675071097A8369838B819C81892BCA
:1016700009F4CFC063E371E089819A81EB81FC8139
:101680000995A3ECB0E014962D903C901597211489
:10169000310409F4E1C011963C911197432F032EB8
:1016A000000C550B041715070CF4D6C013962C919B
:1016B00013972F73E22FF0E0CA018E0F9F1F6981ED
:1016C0007A81681779070CF0C7C08C90082C000C41
:1016D00099081296AC9012978A2D90E06401C80E7A
:1016E000D91E1C141D040CF0B7C07801E41AF50AC9
:1016F00063E0F594E7946A95E1F74E2D3770B701F2
:10170000FFD2280E391EC4018D5C9E4F9E878D87A7
:10171000432E032E000C550880E0E11008C08FEF27
:1017200090E0032E01C0880F0A94EAF78095E40D3B
:10173000F51DBF0153E0759567955A95E1F7E616DB
:10174000F70649F4E770FF276FEF70E001C0660FFE
:10175000EA95EAF7862B622F70E0695F7F4FFB0105
:1017600093E0F595E7959A95E1F7FE83ED836A2C72
:10177000712C70E060E0F6013197F887EF83F1019A
:10178000E619F709FA87E987E8E0F0E0E419F509D6
:10179000FC87EB876616770609F45EC06401C60E07
:1017A000D71EF0E8CF16D10460F5ED81FE8190E000
:1017B000EE16FF064CF4F101E60FF71F9491042C8E
:1017C00001C0990F0A94EAF7332379F014166CF4E8
:1017D000E985FA85E60FF71FE491F0E00B8402C07B
:1017E000F595E7950A94E2F79E2B13965C91139773
:1017F000507CED85FE852081511112C090952923E2
:101800002083ED85FE853196FE87ED876F5F7F4FE4
:10181000C1CFE3E3F1E020E811922A95E9F731CF57
:10182000503429F4922BED85FE859083EACF503811
:1018300011F49227F8CF8C149D044CF4EF81F885B5
:10184000CE16DF0624F42823ED85FE852083ED8562
:10185000FE852081922BE9CF1696F1E0A332BF07D7
:1018600009F011CFC801039766E070E066D2660FF9
:10187000771F660F771FDB01A956BF4F819520E0C8
:10188000AB39B20708F46DC030E0A33CB30708F0F1
:1018900068C012966D917C9113977A836983672B48
:1018A00009F45FC02C91E82FFF27E1950CF4F09527
:1018B000AF01922F11963C911197E981FA8130FF87
:1018C00041C0F490FF2009F44CC066E0620F7FED48
:1018D0007F0D7F3378F5EF2DFF0CFF0BEE0FFF1F11
:1018E000EE0FFF1FE25BFA4FC590D590E590F490A4
:1018F000E22F220FFF0BED5CFE4F732F727097FDEE
:101900000EC02C2D2F731816FCF4082E01C0220FC8
:101910000A94EAF73081772309F1232B208326E00C
:10192000F694E794D794C7942A95D1F731969F5FA0
:101930006913E5CF29813A812F5F3F4F3A8329838D
:10194000262FB7CFF080BECF882321F330E0042EBE
:1019500002C0359527950A94E2F7DCCF2095232322
:10196000DDCF14968A5F88300CF489CF81E806D8E1
:10197000085F1F4F0734110509F072CE1092230142
:1019800080912801B81681F0B0922801C2D9B9D946
:101990008B2D90E066E070E0B3D18253994FFC014B
:1019A00085919491FC010995C0902401D090250166
:1019B000E0902601F0902701F1E2CF0ED11CE11C4E
:1019C000F11CC0922401D0922501E0922601F092F0
:1019D00027012FB7F89480912A0190912B01A091B3
:1019E0002C01B0912D012FBFC81AD90AEA0AFB0AAF
:1019F000F7FCE3CD9BD67A836983C114D104E1045B
:101A0000F10461F4DACD21E0C21AD108E108F1084D
:101A100069817A8168517C4F7A83698387D6E981AD
:101A2000FA816E1B7F0B683E734038F3C114D104FA
:101A3000E104F10441F7C1CD8F929F92AF92BF9222
:101A4000CF92DF92EF92FF92CF93DF93EC01688108
:101A500079818A819B81611571058105910521F448
:101A600064E279ED8BE597E02DE133EF41E050E062
:101A700000D149015A0127EA31E440E050E0E0D0CA
:101A80006B017C012CEE34EF4FEF5FEFC501B40129
:101A9000D7D0DC01CB018C0D9D1DAE1DBF1DB7FF46
:101AA00003C00197A109B04888839983AA83BB83A7
:101AB0009F77DF91CF91FF90EF90DF90CF90BF9015
:101AC000AF909F908F900895B7DF089580E690E0E3
:101AD000B3DF0895B0E0A0E08093600090936100D0
:101AE000A0936200B093630008958F929F92AF928B
:101AF000BF92CF92DF92EF92FF92CF93DF93EC01F0
:101B0000688179818A819B816115710581059105C3
:101B100021F464E279ED8BE597E02DE133EF41E0CC
:101B200050E0A7D049015A0127EA31E440E050E0F3
:101B300087D06B017C012CEE34EF4FEF5FEFC501D6
:101B4000B4017ED0C60ED71EE81EF91EF7FE06C0F1
:101B500081E0C81AD108E10880E8F80AC882D98271
:101B6000EA82FB82C701B6019F77DF91CF91FF9098
:101B7000EF90DF90CF90BF90AF909F908F9008959F
:101B80008F929F92AF92BF92CF92DF92EF92FF928D
:101B9000609164007091650080916600909167008B
:101BA000611571058105910521F464E279ED8BE5FC
:101BB00097E02DE133EF41E050E05BD049015A015D
:101BC00027EA31E440E050E03BD06B017C012CEE91
:101BD00034EF4FEF5FEFC501B40132D0C60ED71E10
:101BE000E81EF91EF7FE06C081E0C81AD108E10818
:101BF00080E8F80AC0926400D0926500E092660026
:101C0000F0926700C701B6019F77FF90EF90DF90D9
:101C1000CF90BF90AF909F908F9008956093640095
:101C20007093650080936600909367000895FB01B0
:101C3000DC0102C005900D9241505040D8F7089544
:101C4000EE27FF27AA27BB2708C0A20FB31FE41F58
:101C5000F51F220F331F441F551F969587957795C3
:101C6000679598F37040A9F7009799F7BD01CF01E8
:101C70000895052E97FB16F400940FD057FD05D05C
:101C800014D007FC02D046F408C05095409530951A
:101C900021953F4F4F4F5F4F0895909580957095D8
:101CA00061957F4F8F4F9F4F0895A1E21A2EAA1B77
:101CB000BB1BFD010DC0AA1FBB1FEE1FFF1FA217FC
:101CC000B307E407F50720F0A21BB30BE40BF50BF9
:101CD000661F771F881F991F1A9469F76095709582
:101CE000809590959B01AC01BD01CF010895002422
:101CF00080FD060E660F11F08695D1F7802D0895B0
:101D00000024552704C0080E591F880F991F0097FB
:101D100029F076956795B8F37105B9F7802D952F61
:101D20000895991B79E004C0991F961708F0961B37
:101D3000881F7A95C9F78095089597FB072E16F4AA
:101D4000009406D077FD08D00BD007FC05D03EF4F8
:101D5000909581959F4F0895709561957F4F089557
:101D6000AA1BBB1B51E107C0AA1FBB1FA617B707C1
:101D700010F0A61BB70B881F991F5A95A9F78095DD
:0C1D80009095BC01CD010895F894FFCFB0
:081D8C0001000000010000004D
:00000001FF
