:1000000090C1AAC1A9C19BC8A7C14FC8A5C1A4C11D
:10001000A3C1A2C1A1C1A0C19FC19EC19DC1484FA2
:100020004C442020544F204558495400202020554E
:100030005020787878787820202041333D6E6E6E9D
:100040006E0020444F574E20787878787820202012
:1000500041303D6E6E6E6E0050524553532078789D
:10006000787878005B425554544F4E5D00434F44BE
:10007000457878782058005B4348415241435445C5
:10008000525D00B420A622B524E4263429A72B40D3
:100090002E0031EA330037453ABC3D56414C5545B8
:1000A000787878004144445245535320787878005A
:1000B0005B454550524F4D5D0056302E34004F4247
:1000C0004E2D543030000080C06020E02020408061
:1000D0000000FF57AB5701FF202040800000008048
:1000E000C06020E020204080001F376A95A897ACB0
:1000F000944C241F001F356A95A897AC944C241F7C
:1001000000FF97AA9580BFAC94AC84FF6E6E6E2CF6
:100110006E6E6E005B53435245454E5D00504C4140
:1001200059004652455155454E435920787878300C
:10013000485A005B534F554E445D003C7EFFE7E755
:10014000FF7E3C5B5350524954455D0004040E0E43
:100150001F001F0E0E04040001071F070100101CE2
:100160001F1C10000E1F1F1F0E004C41554E434810
:1001700020434F554E5478787800425554544F4E92
:100180000043484152414354455200454550524F67
:100190004D0053435245454E00534F554E44005376
:1001A0005052495445002D2D2054455354204D455F
:1001B0004E55202D2D0000000000370000000000EB
:1001C00038000202020202020102040810200102A9
:1001D0000000040000AED5F0A83FD300408D1420ED
:1001E00000A1C8DA12813FD922DB20A4A62EAFB02D
:1001F00000100000000000700100C0000C00CAA741
:100200007C0A42F55508534248195EF551120030F8
:1002100000000027450040941C0014F3190504F168
:1002200011042004000004411004000400001042E6
:1002300008015E14450F40F0010059555513515502
:100240005D0D8C927C085755550D5E55550D5152DC
:100250000C015E55550F5655550F00A0000000A427
:10026000000000C2280080A22800806208004050E0
:100270000D005E7455079C92241F5F555D0D9C1404
:1002800045115F1425075F5555115F5114015E54E8
:10029000551D1F41101F40F44500100421071F4148
:1002A000181D1F0441105EF0041F9C10041F5E54B3
:1002B000450F5F9214035ED4451F5F92341B565561
:1002C000550D41F005011F0421071F4208011FE4DD
:1002D000410F1743181D07C1090151564D1100F078
:1002E000450000F0010040F4010080100C001004F3
:1002F00041105C02530200007F066A030000ED0714
:10030000C8040000BC0796049E05650704060000AB
:1003100042074C046E05F006030400001D02910321
:10032000540511241FBECFE5D2E0DEBFCDBF10E0E3
:10033000A0E6B0E0E0E4FAE102C005900D92AC3630
:10034000B107D9F721E0ACE6B0E001C01D92AE3CA8
:10035000B207E1F782D772CB53CECF93DF9387FFFB
:1003600007C08F7769F1813069F1823069F183E0EC
:1003700090E0FC01E853FE4F24918E539E4FFC0108
:1003800084918823D1F090E0880F991FFC01EA54F2
:10039000FE4FA591B491FC01E454FE4FC591D49158
:1003A000611114C09FB7F8948C91E22FE0958E23D1
:1003B0008C932881E223E8839FBFDF91CF9108953A
:1003C00085E0D6CF82E0D4CF84E0D2CF8FB7F89447
:1003D000EC91E22BEC938FBFF0CF8F7787B987B189
:1003E00087B9369A3699FECF84B195B108953FB753
:1003F000F8948091E2009091E300A091E400B09124
:10040000E50022B708B601FE05C02F3F19F001969E
:10041000A11DB11D3FBFBA2FA92F982F8827BC015E
:10042000CD01620F711D811D911D42E0660F771F86
:10043000881F991F4A95D1F70895CF93DF931092A3
:100440001C0180911D018260816080931D0183E405
:1004500091E090931F0180931E01ECEEF0E030E0FC
:1004600020E048E0ABE3B1E0108211824283C90191
:1004700066E070E041DAEC01C151DF4F922F9295B6
:10048000990F990F907C98609883B583A4832F5F10
:100490003F4F36962430310539F781E08093EB00E9
:1004A000DF91CF9108959091DB0091509093DB0004
:1004B00081E0911180E00895ECEEF0E08EE280831F
:1004C00088E1818383E2828380ED838386EC90E000
:1004D00095838483ECE1F1E086E580A3ADE3B1E0B0
:1004E0008C91826081608C938EEB90E093A382A3C9
:1004F00088E684A3A1E4B1E08C91826081608C9352
:1005000089EB90E097A386A38CE38093DB0081E0E6
:100510008093EB00089528E030E090E8482F4923CD
:10052000F9F0F894C09AB8987894F894C29ABA9866
:100530007894F894C298BA9A789496952150310993
:1005400069F7F894C09AB8987894F894C29ABA98CF
:10055000789486B3F894C298BA9A78948170089582
:10056000F894C098B89AE0CFEF92FF920F931F9340
:10057000CF93DF93082FF894C098B89A7894F894A2
:10058000C298BA9A789488E7C6DFCFEFDFEF81117F
:1005900012C08DE4E82E81E0F82ED0E0C0E010E03B
:1005A000C017D10744F4F70181917F01B4DF8111B5
:1005B00002C02196F5CFF894C098B89A7894F89430
:1005C000C29ABA987894F894C09AB8987894CE0160
:1005D000DF91CF911F910F91FF90EF900895CF92EF
:1005E000DF92EF92FF926C01CC0CDD1C90E080E07A
:1005F000F12CE12CA701960190D928EE33E040E0E0
:1006000050E0D7D92F5F3F4F4F4F5F4F2093D3001C
:100610003093D4004093D5005093D60060E074E24C
:1006200084EF90E0A7019601E6D981E02F3F3105E4
:100630004105510549F040F08F3031F08F5F5695FC
:10064000479537952795F2CF806880BF21502DBD03
:100650001FBC89B7806489BFFF90EF90DF90CF9077
:1006600008952091E90030E0209530954091EA000E
:1006700050E02423352390E02823392381E0232BE5
:1006800009F480E008958091EA0081FB992790F9B0
:10069000282F2170921B9093DE0082FB992790F9FE
:1006A00083FB222720F9921B9093E0008F7079F052
:1006B0008091D200873068F491E0980F9093D20037
:1006C000882339F01092E0001092DE000895109215
:1006D000D2000895D8DF8091E0008823C1F0909186
:1006E000DF00282F082E000C330B290F311D263078
:1006F000310568F4890F8093DF001092EC0066E00A
:10070000F2D8825F8093ED0081E08093EB0080E17E
:10071000A8DF882321F08091DF008E5F089581E0BB
:100720000895B1DF9091DE008091E000911106C044
:10073000811104C02091EB00222389F160916900AE
:1007400070916A00690F711D97FD7A9570936A0028
:10075000609369004091670050916800480F511DF7
:1007600087FD5A955093680040936700ECEEF0E0E7
:1007700090E080E0282F21702295207F260F208393
:100780009C01359527952295207F240F2183019682
:1007900036968430910571F781E08093EB0080E11B
:1007A00060DF811102C087E0089581E008950F9312
:1007B0001F93CF93DF93E62FEA0190E068E170E0AA
:1007C0009BD8E80FF92FF11DED58FF4F30E0022FB5
:1007D00010E0209719F480E2311108C0CE01B80171
:1007E000C1D897E38A3008F490E3890F8293CE0151
:1007F000B801B8D8EB013F5F333059F7DF91CF91A3
:100800001F910F9108953FDF2091E000222381F096
:10081000422F022E000C550B8091650090916600CE
:100820004817590729F0841B950B883E934020F008
:100830008091EB00882399F040916500509166000B
:10084000421B510927FD5395509366004093650064
:100850002AE06CE080E0ABDF81E08093EB0083E096
:1008600000DF882389F080916500909166006AE03E
:1008700070E042D829B72F7B29BF1092DD0010927B
:10088000DC0064EF71E0ABDE80E1EBDE811102C0E1
:1008900086E0089581E00895CF93DF93F4DE3091F0
:1008A000DE002091E000311106C0211104C08091CA
:1008B000EB00882389F18091610090916200830FA1
:1008C000911D37FD9A9580589F4F60E870E05ED883
:1008D000FC0190936200809361008091630090918D
:1008E0006400820F911D27FD9A95805C9F4F60E404
:1008F00070E04CD8EC0190936400809363002AE090
:10090000AF0162E080E053DF2AE0AE0166E080E004
:100910004EDF81E08093EB0080E1A3DE811104C013
:1009200085E0DF91CF91089581E0FBCFCF93ABDEDF
:100930002091E000222369F080916000082E000CD5
:10094000990B821B910927FD93958097803491051F
:1009500020F08091EB00882391F0C0916000C21BD1
:10096000C09360004C2F0C2E000C550B20E166E06C
:1009700080E01DDFC0937A0081E08093EB0080E18E
:1009800070DE811103C083E0CF91089581E0FCCF38
:100990005F926F927F928F929F92AF92BF92CF920F
:1009A000DF92EF92FF920F931F93CF93DF935090BC
:1009B000EA00252D30E0209530958091E900682EE1
:1009C000712C6222732208E710E0D0E0C0E0812C95
:1009D000912C54018394750164010C2E04C0CC0C3D
:1009E000DD1CEE1CFF1C0A94D2F7852D8C2109F02A
:1009F0004EC08EE2F80181938F018C2D32DE811181
:100A000048C08EE2F801878BC620D7208EE2CD2821
:100A100009F083E2F80187A72196C530D105D9F600
:100A200080E0DBDCEC012AE0AC0164E181E0BFDEC8
:100A3000C83ED34050F580E280939B0083E0CDDC3C
:100A4000EC012AE0AC0164E182E0B1DE80E2C83E64
:100A5000D34008F081E38093B30081E08093EB0002
:100A600054FC19C01092DB0082E0DF91CF911F91FE
:100A70000F91FF90EF90DF90CF90BF90AF909F903D
:100A80008F907F906F905F90089581E3D5CF83E240
:100A9000B1CF83E2B7CF8091DB008F5F8093DB0023
:100AA0008E3110F381E0E1CF80E3FB0111928A9552
:100AB000E9F7FB01AB01465D5F4FCB01885A9F4FC1
:100AC00035E52AEA3296E417F50719F036A727A785
:100AD000F9CF48E250E06FEF70E0A9C7CF93DF9302
:100AE000EB012091630030916400281739071CF155
:100AF000AC01495F5F4F42175307ECF0281B390BDD
:100B000081E090E0A0E0B0E004C0880F991FAA1F28
:100B1000BB1F2A95D2F7BC0140E850E0CE0187D731
:100B20008091610090916200C80FD91F8FEF888378
:100B3000DF91CF91089570E060E0EECFAF92BF9269
:100B4000CF92DF92EF92FF920F931F93CF93DF9399
:100B50008B018031910509F048C026E0FB01FC962D
:100B6000ACE6B0E001900D922A95E1F723E095956F
:100B700087952A95E1F7EC0122973CE6E32E30E0D9
:100B8000F32E580142E7C42E40E0D42EF7018191A4
:100B90007F0190E00C2E02C0959587950A94E2F7AC
:100BA000817099276FEF70E0A7D648E050E0BC0154
:100BB000C5013DD728E0A20EB11CCE14DF0431F7E9
:100BC00080E390E040E850E0481B590B70E060E0A3
:100BD000800F911FDF91CF911F910F91FF90EF90A8
:100BE000DF90CF90BF90AF9022C7803191050CF07D
:100BF000BDCF80E0E6CFE199FECF6091DA00809131
:100C0000D8009091D90059C6CF93DF933CDD209155
:100C1000E000222359F08091D8009091D900821BE6
:100C2000910927FD93958115924020F08091EB006A
:100C3000882301F18091D7008111DDDF8091E000F0
:100C4000C091D800D091D900C81BD10987FDD39598
:100C5000D093D900C093D80020E1AE016AE080E0D3
:100C6000A6DDE199FECFCE0112D68093DA0081E0B5
:100C70008093EB009091DE00992351F08091DA008F
:100C8000890F8093DA0081E08093D7008093EB0096
:100C90008091EB00882339F04091DA0050E020E1A8
:100CA00067E081E084DD80E1DCDC882331F0809145
:100CB000D7008111A0DF81E001C084E0DF91CF91F6
:100CC00008950F931F93CF93DF93C82F8B01CB0110
:100CD000C5D59C018C2F90E068E170E00DD6EC0149
:100CE000CE58DF4FA90155274F5F5F4FB801CE01A6
:100CF000ACD5CE01DF91CF911F910F910895DF9276
:100D0000EF92FF920F931F93CF93DF9310921C01EA
:100D100080911D018260816080931D0186EA91E0CF
:100D200090931F0180931E010CE111E0C2E0D0E01E
:100D30009AE7E92E91E0F92E26E0D22EF801D0862E
:100D4000FE01EE0FFF1FEE0FFF1FE35EFE4F8081DF
:100D5000826081608083F801F386E286C7017ED5D8
:100D60000196E80EF91E0C5F1F4F2196C830D10581
:100D700029F76AE671E080E0A4DF1092400120913B
:100D8000410122602E7F2093410190934301809383
:100D900042014091E7005091E8002AE06EE080E0D7
:100DA00006DD8091DF0066E09ED5825F1092EC0048
:100DB0008093ED00D092EE0088E48093EF0084E60B
:100DC00091E09093F1008093F00081E08093EB003C
:100DD000DF91CF911F910F91FF90EF90DF900895D9
:100DE000EF92FF920F931F93CF93DF930CE111E0EB
:100DF000F8011082EDE1F1E0808182608160808302
:100E000083E391E0F80193838283CCEED0E01882F3
:100E100088E089838CE0F82EFA8298E4E92EEB8250
:100E200088E591E09D838C8362E271E080E049DF98
:100E3000F801F482E1E2F1E0208122602E7F20833C
:100E4000F801978386831E828EE08F83F886E98679
:100E50008CE491E09B878A87F086E5E2F1E080816F
:100E60008260816080838DE191E0F80193878287C1
:100E700081E08093EB00DF91CF911F910F91FF9064
:100E8000EF900895CF93DF93CCE1D1E01882EDE1AC
:100E9000F1E0808182608160808384E191E09B83C6
:100EA0008A836CE071E080E00CDF2BE22C8BE1E3C5
:100EB000F1E0208122602E7F20839F8B8E8B81E04A
:100EC0008093EB00DF91CF910895EF92FF920F9303
:100ED0001F93CF93DF930CE111E0F8011082EDE155
:100EE000F1E0808182608160808380EB90E0F80196
:100EF00093838283CCEED0E0188288E089838CE0F3
:100F0000F82EFA8298E4E92EEB8288E591E09D8341
:100F10008C8364EA70E080E0D4DEF801F482E1E2E0
:100F2000F1E0208122602E7F2083F8019783868361
:100F30001E828EE08F83F886E9868CE491E09B87A1
:100F40008A876BE970E081E0BCDEF801F086E5E2BB
:100F5000F1E0208122602E7F2083F8019387828731
:100F60001092D70081E08093EB00DF91CF911F9129
:100F70000F91FF90EF9008951F93CF93DF93CCE1F3
:100F8000D1E01882EDE1F1E08081826081608083B0
:100F900087E790E09B838A83ECEEF0E0108288E0A4
:100FA00081831CE0128388E4838388E591E0958344
:100FB00084836DE670E080E084DE1C83E1E2F1E092
:100FC000208122602E7F20839F838E8381E0809307
:100FD000EB00DF91CF911F910895FF920F931F9324
:100FE000CF93DF93CCE1D1E01882EDE1F1E0808195
:100FF00082608160808384E690E09B838A830CEE2C
:1010000010E084E2F801808388E081838EE18283AE
:1010100088E4F82EF3828CE491E09583848368E57C
:1010200070E080E04EDE1886E5E2F1E0208122608B
:101030002E7F20839B878A8762E470E081E041DE17
:101040001C86E9E2F1E0208122602E7F20839F87C9
:101050008E876CE270E082E034DE188AEDE2F1E027
:10106000208122602E7F20839B8B8A8B8BE1F8016D
:10107000868388E3878386E08087F18684E691E033
:10108000938782871CA2E1E4F1E080818260816025
:1010900080838EE190E09FA38EA31092DB00DF910E
:1010A000CF911F910F91FF9008951F920F920FB64D
:1010B0000F9211242F933F938F939F93AF93BF93DE
:1010C0008091440190914501A0914601B091470162
:1010D0003091E10023E0230F2D3768F126E8230F3C
:1010E0000296A11DB11D2093E100809344019093CD
:1010F0004501A0934601B09347018091E200909191
:10110000E300A091E400B091E5000196A11DB11D9E
:101110008093E2009093E300A093E400B093E50095
:10112000BF91AF919F918F913F912F910F900FBEE3
:101130000F901F9018950196A11DB11DD4CF1F923D
:101140000F920FB60F9211242F933F934F935F93FB
:101150006F937F938F939F93AF93BF93CF93DF93BF
:10116000EF93FF938091D3009091D400A091D5008C
:10117000B091D600892B8A2B8B2BD9F08091D3008C
:101180009091D400A091D500B091D6000197A1090B
:10119000B1098093D3009093D400A093D500B0936D
:1011A000D600892B8A2B8B2BB9F088B390E1892745
:1011B00088BBFF91EF91DF91CF91BF91AF919F914C
:1011C0008F917F916F915F914F913F912F910F90F0
:1011D0000FBE0F901F901895C49889B78F7B89BF59
:1011E0002091DC003091DD002115310511F3A901BA
:1011F0004F5F5F4FF901A491A7FF05C01092DD007A
:101200001092DC00D6CF8A2F6CE0A0D3E92FF0E05B
:10121000EE0FFF1FED57FF4FC591D4912E5F3F4F4B
:101220003093DD002093DC00FA01849190E06AE0C5
:1012300070E062D39C0183E890E08A1B91096CE026
:1012400070E0A4D3862FB9019E0102C03695279580
:101250008A95E2F7C901C3D9ACCFCF93DF93CDB75D
:10126000DEB729970FB6F894DEBF0FBECDBF83E07F
:101270008ABD83BF789489B7826089BF80E48CBDC2
:101280008FEF8DBD87EC80BF86B1876886B9379AAE
:1012900060E080E862D860E083E85FD860E081E0E9
:1012A0005CD861E084E059D8E2EDF1E09491ECEC97
:1012B000F1E08491E6ECF1E0E491EE23B9F09923BA
:1012C00031F0913009F0A3C19AB59F779ABDF0E053
:1012D000EE0FFF1FE454FE4FA591B4919FB7F89411
:1012E0002C91E82FE095E223EC939FBFF894C29AEB
:1012F000BA987894F894C09AB89878944EE150E0EF
:1013000064ED71E08DE491E0A0D28EE12DD9ECEE98
:10131000F0E080E3DF011D928A95E9F7ECE1F1E06E
:1013200088E2DF011D928A95E9F781E08093E6006B
:10133000E199FECF90E080E0B2D26F3472448E44E7
:10134000910509F07FC242E050E064E070E087EE72
:1013500090E08DD286E090E09AD29091E700891BD0
:10136000982F8091E80063E0BED2981B913F11F462
:101370001092E6009091E600992321F01092E80087
:101380001092E7002091E7003091E8002F5F3F4F77
:101390003093E8002093E700E1EFE20F832F63E052
:1013A000A2D2E80FE983E199FECF992339F04FE407
:1013B00052E46EE470E090E080E08DD242E050E0D4
:1013C00064E070E087EE90E06FD2698186E090E0A3
:1013D00074D21092E60080914C0190E066E070E0DB
:1013E0008BD28E509D4FFC0185919491FC01099503
:1013F0002FB7F8948091440190914501A091460146
:10140000B09147012FBF8093480190934901A09369
:101410004A01B0934B01212CB4E03B2E16E9412E3A
:10142000512C8091EA008093E90080E8D6D79A8316
:10143000898383E8D2D79C0166B370E0609570958C
:10144000F3E0660F771FFA95E1F7462F4071C1016F
:1014500069817A81861B970BB20198D2462BC10114
:10146000821B930BB20192D2660F771F660F771F14
:10147000462B4093EA0080914C0190E066E070E0DA
:101480003BD28C509D4FFC0185919491FC010995B4
:10149000982E80914C0190E066E070E02DD28A5049
:1014A0009D4FFC01259134913A8329838091EB0073
:1014B000882309F461C130E430934D0107E010E066
:1014C000380167E0661A710889819A81892B09F4CD
:1014D000B0C06EE471E0C301E981FA810995ACEE18
:1014E000B0E01496ED91FC911597309709F4B6C0D1
:1014F00011964C911197842F042E000C990B08170C
:1015000019070CF4ABC013962C9113972F7330E08E
:10151000B901680F791F661677060CF09FC0CC9052
:101520000C2C000CDD081296EC901297F12CB601F1
:101530006E0D7F1D161617060CF090C05801A81AE4
:10154000B90A53E0B594A7945A95E1F78A2C4770ED
:10155000C701B501D1D18E0F9F1FB601625B7E4FCF
:1015600078876F83295F3F4FB901E3E075956795F1
:10157000EA95E1F77C836B8330E020E0BC016E19D3
:101580007F09E8E0F0E0E41BF109FE83ED83E21659
:10159000F30609F463C0F601E20FF31FE038F1052A
:1015A00070F5EB81FC8150E0AE16BF064CF4FC01F7
:1015B000E20FF31F5491042E01C0550F0A94EAF76D
:1015C000442371F0181464F4FB01E20FF31FE4915B
:1015D000F0E00D8002C0F595E7950A94E2F75E2BE6
:1015E0001396EC911397E07C59F550955987EF814C
:1015F000F8855081F9855F23EF81F8855083EF816D
:10160000F8853196F887EF832F5F3F4FC0CF923038
:1016100019F49AB59F7D5ACE933021F490B79F7DEF
:1016200090BF55CE943009F052CE9CB59F7D9CBDA5
:101630004ECEAEE4B1E0E0E81D92EA95E9F74FCF77
:10164000E03429F4EF81F885F0815F2BD5CFE038C5
:1016500099F6EF81F885F0815F27CECF1696F1E0FD
:10166000AC31BF0709F03DCFC801039766E070E0D9
:101670008DD1660F771F660F771FDB01A85EBE4F07
:10168000819521E0AC31B20708F467C031E0A434A1
:10169000B30708F062C012966D917C9113977C831A
:1016A0006B83672B09F459C09C91E82FFF27E195C4
:1016B0000CF4F095AF0111966C911197EB81FC81C0
:1016C00060FF3CC02491222309F447C0E22F220F7F
:1016D000FF0BEE0FFF1FEE0FFF1FEE58FE4FC590E2
:1016E000D590E590F490E92F092E000CFF0BE25BFA
:1016F000FE4F76E0790F627097FD0EC02C2D2F7390
:101700001816F4F4082E01C0220F0A94EAF730816B
:10171000662301F1232B20839F5F26E0F694E79454
:10172000D794C7942A95D1F731967913E5CF2B81B9
:101730003C812F5F3F4F3C832B83BDCF2081C3CFA4
:10174000882329F330E0042E02C0359527950A94AA
:10175000E2F7DDCF20952323DECF14968A5F883011
:101760000CF48FCF81E800D7085F1F4F07341105B5
:1017700009F0A6CE1092EB0080914C019816D1F0A2
:1017800090924C0180E3ACEEB0E01D928A95E9F7AF
:1017900088E2ECE1F1E011928A95E9F7892D90E079
:1017A00066E070E0A9D08E509D4FFC018591949128
:1017B000FC010995C0904801D0904901E0904A0190
:1017C000F0904B01F1E2CF0ED11CE11CF11CC09254
:1017D0004801D0924901E0924A01F0924B012FB7A3
:1017E000F8948091440190914501A0914601B091F7
:1017F00047012FBFC81AD90AEA0AFB0AF7FC11CE23
:10180000F6D57A836983C114D104E104F10461F44B
:1018100002CE21E0C21AD108E108F10869817A817B
:1018200068517C4F7A836983E2D5A981BA816A1BAA
:101830007B0B683E734038F3C114D104E104F1041A
:1018400041F7E9CD9091E60099CDFB01DC0102C0A2
:1018500005900D9241505040D8F70895FC01059035
:101860000020E9F7809590958E0F9F1F0895DC0169
:10187000CB01FC01E199FECF06C0FFBBEEBBE09AB5
:1018800031960DB20D9241505040B8F70895E1994C
:10189000FECF9FBB8EBBE09A99278DB30895A6E13A
:1018A000B0E044E050E0E5CFDC01CB0102C02D9177
:1018B00005D041505040D8F70895262FE199FECF2A
:1018C0001CBA9FBB8EBB2DBB0FB6F894E29AE19A6F
:1018D0000FBE01960895242FF1DF252FEFDF00C002
:1018E000ECDF272FEBCF002480FD060E660F11F0F2
:1018F0008695D1F7802D08950024552704C0080E41
:10190000591F880F991F009729F076956795B8F3AE
:101910007105B9F7802D952F0895EE27FF27AA2787
:10192000BB2708C0A20FB31FE41FF51F220F331FF0
:10193000441F551F969587957795679598F3704046
:10194000A9F7009799F7BD01CF010895991B79E098
:1019500004C0991F961708F0961B881F7A95C9F73F
:1019600080950895AA1BBB1B51E107C0AA1FBB1F8E
:10197000A617B70710F0A61BB70B881F991F5A951B
:10198000A9F780959095BC01CD01089597FB072E8E
:1019900016F4009406D077FD08D0E4DF07FC05D0EC
:1019A0003EF4909581959F4F0895709561957F4F76
:1019B0000895A1E21A2EAA1BBB1BFD010DC0AA1F90
:1019C000BB1FEE1FFF1FA217B307E407F50720F0A8
:1019D000A21BB30BE40BF50B661F771F881F991F23
:1019E0001A9469F760957095809590959B01AC016C
:1019F000BD01CF010895052E97FB16F400940FD07A
:101A000057FD05D0D6DF07FC02D046F408C050953C
:101A10004095309521953F4F4F4F5F4F08959095DA
:101A20008095709561957F4F8F4F9F4F0895DC0192
:101A300001C06D9341505040E0F70895F894FFCFF6
:0C1A400020200010002C001000200000EE
:00000001FF
